:020000040800F2
:10000000000003205D610008F1570008F357000865
:10001000F5570008F7570008F957000800000000DE
:10002000000000000000000000000000FB57000876
:10003000FD57000800000000FF57000801580008A5
:10004000AD610008AD610008AD610008AD61000858
:10005000AD610008AD610008AD610008AD61000848
:10006000AD610008AD610008AD6100080D580008E1
:10007000AD610008AD610008AD610008AD61000828
:100080001D5800082D5800083D580008AD610008B3
:10009000AD610008AD610008AD610008AD61000808
:1000A000AD610008AD610008AD610008AD610008F8
:1000B000AD610008AD610008AD610008AD610008E8
:1000C000AD610008AD610008AD610008AD610008D8
:1000D000AD6100084D580008AD6100086558000882
:1000E00075580008AD610008AD610008AD610008F9
:1000F000AD610008AD610008AD61000891580008CD
:10010000AD610008AD610008AD610008AD61000897
:10011000AD610008A1580008AD610008AD6100089C
:10012000B9580008C9580008D9580008AD6100083E
:10013000AD610008AD610008AD610008AD61000867
:10014000AD610008AD610008AD610008AD61000857
:10015000AD610008AD610008E9580008F9580008D1
:10016000AD610008AD610008AD610008AD61000837
:10017000AD610008AD610008AD610008000000003D
:10018000AD610008AD610008AD610008AD61000817
:10019000AD610008AD610008AD610008AD61000807
:0C01A000AD610008AD610008AD61000811
:1001B00010B5054C237833B9044B13B10448AFF3A1
:1001C00000800123237010BD080200200000000001
:1001D000E48200080C4B43B10C480D4910B5AFF355
:1001E00000800C48036823B910BD0A48036833B97E
:1001F0007047094B002BF7D0BDE810401847064B5D
:10020000002BF5D0184700BF00000000E482000872
:100210000C020020080200200000000081F00041D4
:1002200002E000BF83F0004330B54FEA41044FEADB
:10023000430594EA050F08BF90EA020F1FBF54EA76
:10024000000C55EA020C7FEA645C7FEA655C00F012
:10025000E2804FEA5454D4EB5555B8BF6D420CDDE3
:100260002C4480EA020281EA030382EA000083EA66
:10027000010180EA020281EA0303362D88BF30BD06
:1002800011F0004F4FEA01314FF4801C4CEA11315C
:1002900002D0404261EB410113F0004F4FEA0333BB
:1002A0004CEA133302D0524263EB430394EA050F46
:1002B00000F0A780A4F10104D5F1200E0DDB02FAB5
:1002C0000EFC22FA05F2801841F1000103FA0EF249
:1002D000801843FA05F359410EE0A5F120050EF10F
:1002E000200E012A03FA0EFC28BF4CF0020C43FA40
:1002F00005F3C01851EBE37101F0004507D54FF04D
:10030000000EDCF1000C7EEB00006EEB0101B1F59C
:10031000801F1BD3B1F5001F0CD349085FEA3000E2
:100320004FEA3C0C04F101044FEA445212F5800FED
:1003300080F09A80BCF1004F08BF5FEA500C50F18A
:10034000000041EB045141EA050130BD5FEA4C0C6D
:10035000404141EB010111F4801FA4F10104E9D1F6
:1003600091F0000F04BF01460020B1FA81F308BFED
:100370002033A3F10B03B3F120020CDA0C3208DDB9
:1003800002F1140CC2F10C0201FA0CF021FA02F194
:100390000CE002F11402D8BFC2F1200C01FA02F104
:1003A00020FA0CFCDCBF41EA0C019040E41AA2BF29
:1003B00001EB0451294330BD6FEA04041F3C1CDAF1
:1003C0000C340EDC04F11404C4F1200220FA04F011
:1003D00001FA02F340EA030021FA04F345EA0301BB
:1003E00030BDC4F10C04C4F1200220FA02F001FA7D
:1003F00004F340EA0300294630BD21FA04F02946FF
:1004000030BD94F0000F83F4801306BF81F4801197
:100410000134013D4EE77FEA645C18BF7FEA655C0A
:1004200029D094EA050F08BF90EA020F05D054EADC
:10043000000C04BF1946104630BD91EA030F1EBFE1
:100440000021002030BD5FEA545C05D140004941E5
:1004500028BF41F0004130BD14F580043CBF01F5D8
:10046000801130BD01F0004545F0FE4141F47001BE
:100470004FF0000030BD7FEA645C1ABF1946104699
:100480007FEA655C1CBF0B46024650EA013406BF9A
:1004900052EA033591EA030F41F4002130BD00BF59
:1004A00090F0000F04BF0021704730B54FF4806416
:1004B00004F132044FF000054FF0000150E700BF97
:1004C00090F0000F04BF0021704730B54FF48064F6
:1004D00004F1320410F0004548BF40424FF00001E3
:1004E0003EE700BF42004FEAE2014FEA31014FEA26
:1004F00002701FBF12F07F4393F07F4F81F0605175
:10050000704792F0000F14BF93F07F4F704730B5E3
:100510004FF4607401F0004521F0004120E700BF76
:1005200050EA010208BF704730B54FF000050AE0FD
:1005300050EA010208BF704730B511F0004502D5FE
:10054000404261EB41014FF4806404F132045FEA00
:10055000915C3FF4DCAE4FF003025FEADC0C18BFA5
:1005600003325FEADC0C18BF033202EBDC02C2F19B
:10057000200300FA03FC20FA02F001FA03FE40EA2D
:100580000E0021FA02F11444C1E600BF70B54FF02D
:10059000FF0C4CF4E06C1CEA11541DBF1CEA13550F
:1005A00094EA0C0F95EA0C0F00F0DEF82C4481EA77
:1005B000030621EA4C5123EA4C5350EA013518BF97
:1005C00052EA033541F4801143F4801338D0A0FB84
:1005D00002CE4FF00005E1FB02E506F00042E0FB31
:1005E00003E54FF00006E1FB03569CF0000F18BF37
:1005F0004EF0010EA4F1FF04B6F5007F64F54074DF
:1006000004D25FEA4E0E6D4146EB060642EAC62171
:1006100041EA55514FEAC52040EA5E504FEACE2EDE
:10062000B4F1FD0C88BFBCF5E06F1ED8BEF1004FE1
:1006300008BF5FEA500E50F1000041EB045170BD5D
:1006400006F0004646EA010140EA020081EA0301A1
:10065000B4EB5C04C2BFD4EB0C0541EA045170BD9D
:1006600041F480114FF0000E013C00F3AB8014F117
:10067000360FDEBF002001F0004170BDC4F1000460
:10068000203C35DA0C341BDC04F11404C4F12005E1
:1006900000FA05F320FA04F001FA05F240EA02003C
:1006A00001F0004221F0004110EBD37021FA04F672
:1006B00042EB06015EEA430E08BF20EAD37070BD2C
:1006C000C4F10C04C4F1200500FA04F320FA05F08B
:1006D00001FA04F240EA020001F0004110EBD3708D
:1006E00041F100015EEA430E08BF20EAD37070BDFD
:1006F000C4F1200500FA05F24EEA020E20FA04F3D6
:1007000001FA05F243EA020321FA04F001F0004184
:1007100021FA04F220EA020000EBD3705EEA430EF5
:1007200008BF20EAD37070BD94F0000F0FD101F024
:100730000046400041EB010111F4801F08BF013C5D
:10074000F7D041EA060195F0000F18BF704703F09B
:100750000046520043EB030313F4801F08BF013D22
:10076000F7D043EA0603704794EA0C0F0CEA1355DE
:1007700018BF95EA0C0F0CD050EA410618BF52EA98
:100780004306D1D181EA030101F000414FF000009E
:1007900070BD50EA410606BF1046194652EA4306AC
:1007A00019D094EA0C0F02D150EA013613D195EA20
:1007B0000C0F05D152EA03361CBF104619460AD168
:1007C00081EA030101F0004141F0FE4141F4700172
:1007D0004FF0000070BD41F0FE4141F4780170BD62
:1007E00070B54FF0FF0C4CF4E06C1CEA11541DBFC7
:1007F0001CEA135594EA0C0F95EA0C0F00F0A7F8C9
:10080000A4EB050481EA030E52EA03354FEA0131F5
:1008100000F088804FEA03334FF0805545EA131308
:1008200043EA12634FEA022245EA111545EA1065D0
:100830004FEA00260EF000419D4208BF964244F167
:10084000FD0404F5407402D25B084FEA3202B61A86
:1008500065EB03055B084FEA32024FF480104FF45A
:10086000002CB6EB020E75EB030E22BFB61A7546CE
:1008700040EA0C005B084FEA3202B6EB020E75EB61
:10088000030E22BFB61A754640EA5C005B084FEAC9
:100890003202B6EB020E75EB030E22BFB61A754696
:1008A00040EA9C005B084FEA3202B6EB020E75EBA1
:1008B000030E22BFB61A754640EADC0055EA060E62
:1008C00018D04FEA051545EA16754FEA06164FEAA5
:1008D000C30343EA52734FEAC2025FEA1C1CC0D151
:1008E00011F4801F0BD141EA00014FF000004FF0DE
:1008F000004CB6E711F4801F04BF01430020B4F19F
:10090000FD0C88BFBCF5E06F3FF6AFAEB5EB030C56
:1009100004BFB6EB020C5FEA500C50F1000041EB53
:10092000045170BD0EF0004E4EEA113114EB5C0420
:10093000C2BFD4EB0C0541EA045170BD41F48011F3
:100940004FF0000E013C90E645EA060E8DE60CEAFB
:10095000135594EA0C0F08BF95EA0C0F3FF43BAF18
:1009600094EA0C0F0AD150EA01347FF434AF95EACF
:100970000C0F7FF425AF104619462CE795EA0C0FB3
:1009800006D152EA03353FF4FDAE1046194622E780
:1009900050EA410618BF52EA43067FF4C5AE50EA5A
:1009A00041047FF40DAF52EA43057FF4EBAE12E74A
:1009B0004FF0FF3C06E000BF4FF0010C02E000BF2B
:1009C0004FF0010C4DF804CD4FEA410C7FEA6C5C0E
:1009D0004FEA430C18BF7FEA6C5C1BD001B050EAB1
:1009E000410C0CBF52EA430C91EA030F02BF90EA9C
:1009F000020F0020704710F1000F91EA030F58BF5B
:100A0000994208BF90422CBFD8176FEAE37040F0BC
:100A1000010070474FEA410C7FEA6C5C02D150EA5A
:100A2000013C07D14FEA430C7FEA6C5CD6D152EA15
:100A3000033CD3D05DF8040B704700BF84461046DA
:100A400062468C461946634600E000BF01B5FFF7D9
:100A5000B7FF002848BF10F1000F01BD4DF808EDA9
:100A6000FFF7F4FF0CBF012000205DF808FB00BF7A
:100A70004DF808EDFFF7EAFF34BF012000205DF8D4
:100A800008FB00BF4DF808EDFFF7E0FF94BF012021
:100A900000205DF808FB00BF4DF808EDFFF7CEFF22
:100AA00094BF012000205DF808FB00BF4DF808ED61
:100AB000FFF7C4FF34BF012000205DF808FB00BF32
:100AC0004FEA4102B2F1E04324BFB3F5001CDCF170
:100AD000FE5C0DD901F0004C4FEAC0024CEA5070A8
:100AE000B2F1004F40EB830008BF20F001007047D7
:100AF00011F0804F21D113F13872BCBF01F00040DA
:100B0000704741F480114FEA5252C2F11802C2F10B
:100B1000200C10FA0CF320FA02F018BF40F001008C
:100B20004FEAC1234FEAD32303FA0CFC40EA0C003E
:100B300023FA02F34FEA4303CCE77FEA625307D17B
:100B400050EA01331EBF4FF0FE4040F440007047B2
:100B500001F0004040F0FE4040F40000704700BF4C
:100B600053B94AB9002908BF00281CBF4FF0FF3114
:100B70004FF0FF3000F07AB9ADF1080C6DE904CE0A
:100B800000F006F8DDF804E0DDE9022304B0704768
:100B90002DE9F0478C460D460446089E002B51D1A6
:100BA0008A4217466DD9B2FA82FEBEF1000F0BD011
:100BB000CEF1200C01FA0EF520FA0CFC02FA0EF729
:100BC0004CEA050C00FA0EF44FEA174A250CBCFB60
:100BD000FAF81FFA87F90AFB18CC45EA0C4508FB1E
:100BE00009F3AB420AD9ED1908F1FF3280F02381F5
:100BF000AB4240F22081A8F102083D44ED1AA4B2B4
:100C0000B5FBFAF00AFB105544EA054400FB09F96C
:100C1000A14509D9E41900F1FF3380F00A81A1450B
:100C200040F2078102383C44A4EB090440EA084042
:100C30000021002E61D024FA0EF40023346073608A
:100C4000BDE8F0878B4207D9002E54D0002186E8FA
:100C500021000846BDE8F087B3FA83F1002940F08F
:100C60008E80AB4202D3824200F2FA80841A65EB96
:100C700003050120AC46002E3FD086E81010BDE8E9
:100C8000F08712B90127B7FBF2F7B7FA87FEBEF17A
:100C9000000F34D1EB1B3A0C1FFA87FC0121B3FB88
:100CA000F2F8250C02FB183345EA03450CFB08F368
:100CB000AB4207D9ED1908F1FF3002D2AB4200F286
:100CC000D1808046ED1AA3B2B5FBF2F002FB1055BD
:100CD00043EA05440CFB00FCA44507D9E41900F1E4
:100CE000FF3302D2A44500F2B8801846A4EB0C04EE
:100CF00040EA08409DE731463046BDE8F087CEF136
:100D0000200405FA0EF307FA0EF720FA04F83A0C5D
:100D100025FA04F448EA0308B4FBF2F14FEA184557
:100D200002FB11441FFA87FC45EA044501FB0CF362
:100D3000AB4200FA0EF409D9ED1901F1FF3080F051
:100D40008A80AB4240F2878002393D44EB1A1FFA99
:100D500088F5B3FBF2F002FB103345EA034500FBD4
:100D60000CF3AB4207D9ED1900F1FF386FD2AB425B
:100D70006DD902383D44EB1A40EA01418FE7C1F1D9
:100D8000200722FA07F88B4005FA01F448EA03032A
:100D900020FA07FE4FEA134CFD404EEA040EB5FB65
:100DA000FCF94FEA1E440CFB19551FFA83F844EA7C
:100DB000054509FB08F4AC4202FA01F200FA01FA17
:100DC00008D9ED1809F1FF3043D2AC4241D9A9F15D
:100DD00002091D442D1B1FFA8EFEB5FBFCF00CFB17
:100DE00010554EEA054400FB08F8A04507D9E41861
:100DF00000F1FF3529D2A04527D902381C4440EA2A
:100E00000940A4EB0804A0FB02894C45C6464D46A8
:100E100015D312D056B1BAEB0E0364EB050404FAF5
:100E200007F7CB401F43CC40376074600021BDE81A
:100E3000F0871846F8E69046E0E6C245EAD2B8EBFD
:100E4000020E69EB03050138E4E72846D7E7404680
:100E500091E78146BEE7014678E702383C4445E722
:100E6000084608E7A8F102083D442BE7704700BF99
:100E7000034613F8012B002AFBD1181A01387047DA
:100E800001F0FF01102A2BDB10F0070F08D010F83B
:100E9000013B013A8B422DD010F0070F42B3F6D13F
:100EA000F0B441EA012141EA014122F007047FF058
:100EB00000070023F0E80256083C85EA010586EAAF
:100EC000010685FA47F5A3FA87F586FA47F6A5FAEB
:100ED00087F68EB9EED1F0BC01F0FF0102F00702F7
:100EE00032B110F8013B013A83EA010313B1F8D1A2
:100EF0000020704701387047002D06BF3546033883
:100F0000073815F0010F07D1013015F4807F02BFBB
:100F1000013015F4C03F0130F0BC0138704700BF0C
:100F20004FEA410C7FEA6C5C02D150EA013C0AD1E5
:100F30004FEA430C7FEA6C5C02D152EA033C02D1D7
:100F40004FF0000070474FF0010070474FEA410238
:100F500012F5001215D211D56FF47873B3EB62520B
:100F600012D94FEAC12343F0004343EA505311F032
:100F7000004F23FA02F018BF404270474FF00000C4
:100F8000704750EA013005D111F0004008BF6FF002
:100F9000004070474FF00000704700BF10B5044696
:100FA0000E4B18784FF47A73B3FBF0F30C4A1068C9
:100FB000B0FBF3F000F0C2FB68B90F2C01D901209F
:100FC00010BD002221464FF0FF3000F079FB034BAB
:100FD0005C60002010BD012010BD00BF000000209B
:100FE0003400002008B50B4B1A6842F400721A60F6
:100FF0001A6842F480621A601A6842F480721A60B9
:10100000032000F04BFB0020FFF7C8FF04F0A6FB15
:10101000002008BD003C0240034A1168034B1B78C6
:101020000B441360704700BF400200200000002006
:10103000014B1868704700BF4002002038B50446D5
:10104000FFF7F6FF0546B4F1FF3F02D0044B1B78D3
:101050001C44FFF7EDFF401B8442FAD838BD00BFA7
:1010600000000020494B5A6822F440325A605A6806
:1010700041680A435A600268536823F480735360DE
:1010800002685368016943EA0123536002685368A8
:1010900023F0407353600268536881680B435360C8
:1010A0000268936823F40063936002689368C168E0
:1010B0000B439360826A364B9A4249D00268936828
:1010C00023F07063936002689368816A0B439360B6
:1010D0000268936823F04053936002689368C16A82
:1010E0000B4393600268936823F0020393600268E5
:1010F0009368816943EA41039360036A002B32D10C
:101100000268536823F4006353600268D36A23F4CF
:101110007003D3620168CB6AC269013A43EA0253A1
:10112000CB620268936823F400739360026893684B
:10113000016B43EA412393600268936823F4806360
:10114000936002689368416943EA81239360704722
:101150000268936823F0706393600268936823F0D9
:1011600040539360BEE70268536843F400635360E2
:101170000268536823F46043536001684B68426A15
:10118000013A43EA42334B60BFE700BF002301400E
:101190000100000F30B310B50446036C43B1236C5B
:1011A00013F0100F0AD00120002384F83C3010BD4A
:1011B000436480F83C3003F057FDF0E7236C23F4E0
:1011C000885323F0020343F0020323642046FFF711
:1011D00049FF00206064236C23F0030343F0010304
:1011E0002364E1E70120704730B583B00023019309
:1011F00090F83C30012B00F08180012380F83C30D6
:1012000003689C6814F0010F13D19C6844F001043A
:101210009C603F4B1C683F4BA3FB0434A40C04EBC5
:101220004404019402E0019C013C0194019C002CC7
:10123000F9D103689C6814F0010F62D0046C24F4A7
:10124000E06424F0010444F4807404645B6813F4E3
:10125000806F05D0036C23F4405343F48053036440
:10126000036C13F4805F36D0436C23F006034364B1
:1012700013460446002280F83C20826B2648D06347
:10128000A26B26481064A26B2548D06422686FF0D8
:10129000220010602568686840F0806068602568FA
:1012A000A86840F48070A86020680A4600F14C01EC
:1012B000A06B00F061FB1B4B5B6813F01F0F0DD19F
:1012C00023689A6812F0405F1DD19A6842F080420C
:1012D0009A60002013E000234364C9E72368124AA0
:1012E000934201D000200AE09A6812F0405F0CD1CE
:1012F0009A6842F080429A60002000E0022003B029
:1013000030BD0020FBE70020F9E70020F7E700BF31
:101310003400002083DE1B432D13000891130008C6
:10132000ED140008002301400020014008B5836B44
:101330001A6C12F0500F26D11A6C42F400721A6423
:101340001A68916811F0405F19D19969B9B9D16AE9
:1013500011F4700F03D0916811F4806F0FD15168B0
:1013600021F0200151601A6C22F480721A641A6C08
:1013700012F4805F03D11A6C42F001021A6418461D
:1013800003F01CFF08BD9B6BDB6C984708BD7047E2
:1013900008B5806BFFF7FBFF08BD7047704738B595
:1013A000044602681168536811F0020F2FD003F051
:1013B000200363B3036C13F0100F03D1036C43F4E9
:1013C00000730364936813F0405F19D1A369BBB93C
:1013D000D36A13F4700F03D0936813F4806F0FD1A6
:1013E000536823F020035360236C23F48073236439
:1013F000236C13F4805F03D1236C43F00103236457
:10140000204603F0DBFE23686FF012021A602368A7
:1014100019685A6802F0800211F0040F36D0002AD1
:1014200034D0226C12F0100F03D1226C42F400521F
:1014300022649A6812F4401F21D19A6B12F4401F63
:1014400003D09A6812F4806F19D15A6812F4806F31
:1014500015D19A6812F0405F11D1A2697AB95A6821
:1014600022F080025A60236C23F480532364236C9F
:1014700013F4807F03D1236C43F0010323642046DF
:1014800000F00AF923686FF00C021A6022681168F4
:10149000536803F0400311F0010F04D01BB113682F
:1014A00013F0010F09D122681168536803F08063BB
:1014B00011F0200F00D063B938BD236C43F48033A2
:1014C00023642046FFF769FF23686FF001021A606A
:1014D000E9E7636C43F0020363646FF02005156075
:1014E0002046FFF75BFF23681D60E5E708B5806BCA
:1014F00040230364436C43F004034364FFF74EFF4F
:1015000008BD000030B482B00023019390F83C3055
:10151000012B00F0B580012380F83C300B68092BCB
:101520003ED90568EA689BB203EB43031E3B0724E0
:1015300004FA03F322EA0303EB600568EA688C68A7
:101540000B8803EB43031E3B04FA03F31343EB60E6
:101550004B68062B3AD805686A6B03EB8303053B9F
:101560001F2404FA03F322EA03036B6305686A6B22
:101570004B6803EB8303053B0C8804FA03F3134326
:101580006B6302683F4B9A4250D002683D4B9A42CF
:1015900055D0002380F83C30184602B030BC70476C
:1015A00005682A699BB203EB4303072404FA03F39B
:1015B00022EA03032B6105682A698C680B8803EB18
:1015C000430304FA03F313432B61C1E70C2B16D832
:1015D00005682A6B03EB8303233B1F2404FA03F300
:1015E00022EA03032B6305682A6B4B6803EB830332
:1015F000233B0C8804FA03F313432B63C1E705680C
:10160000EA6A03EB8303413B1F2404FA03F322EA53
:101610000303EB620568EA6A4B6803EB8303413B13
:101620000C8804FA03F31343EB62AAE70B68122B4E
:10163000ABD1154A536843F480035360A5E70B68A8
:10164000124A934201D0112BA3D10F4A536843F49D
:10165000000353600A680D4B9A429AD10C4B1B68E9
:101660000C4AA2FB03239B0C03EB83035A00019259
:1016700002E0019B013B0193019B002BF9D188E71C
:1016800002208AE7002001400023014012000010E0
:101690003400002083DE1B4370470000074AD368F4
:1016A00023F4E0631B041B0C000200F4E060184309
:1016B00040F0BF6040F40030D060704700ED00E0C3
:1016C00030B4164BDB68C3F30223C3F10704042CC8
:1016D00028BF04241D1D062D17D9033B012505FA3B
:1016E00004F4013C2140994005FA03F3013B134007
:1016F000194300280BDB0901C9B200F1604000F575
:10170000614080F8001330BC70470023E6E700F02A
:101710000F000901C9B2024B1954F4E700ED00E0D3
:1017200014ED00E0420900F01F00012303FA00F06D
:10173000014B43F82200704700E100E00138B0F1AE
:10174000807F0AD2064B5860F021064A82F82310A7
:101750000020986007221A6070470120704700BF80
:1017600010E000E000ED00E0430900F01F0001225E
:1017700002FA00F06033024A42F82300704700BFCB
:1017800000E100E0042805D0054A136823F00403B3
:1017900013607047024A136843F0040313607047F4
:1017A00010E000E0704708B5FFF7FCFF08BD30B45B
:1017B00005682C6824F480242C60046863608368C6
:1017C000402B05D0036899600368DA6030BC70472D
:1017D00003689A600368D960F8E700000268D3B232
:1017E000103B0B49A1FB03131B090A49C95CC165E6
:1017F000032B06D822F47F7222F003028265806DEB
:10180000704722F47F7222F0030204328265F6E709
:10181000ABAAAAAA00830008836A826992B9012B45
:101820000AD01BB1022B01D000207047C36A13F00D
:10183000807F2CD100207047C36AB3F1C07F28D0CD
:1018400000207047B2F5005F05D0022B29D9032B89
:1018500015D000207047032B03D8DFE803F01C04E9
:101860001C0A00207047C36A13F0807F15D1002046
:101870007047C36AB3F1C07F11D000207047C36ABC
:1018800013F0807F01D001207047002070470120B5
:1018900070470120704701207047012070470120E8
:1018A000704701207047000070B50446FFF7C0FB89
:1018B000002C5DD00546002384F83430022384F8E0
:1018C00035302268136823F00103136023681A6817
:1018D00012F0010F0AD0FFF7ABFB401B0528F5D92A
:1018E00020236365032084F8350070BD1A68214900
:1018F00011406268A0680243E06802432069024325
:1019000060690243A0690243E0690243206A02431E
:101910000A43616A042916D01A602668756925F0A1
:101920000705636A1D43042B12D075612046FFF73B
:1019300055FFE26D3F2393408360002060650123E3
:1019400084F8353070BDE16A206B01430A43E3E758
:10195000A36A1D43E36A002BE7D02046FFF75CFF34
:101960000028E2D040236365012084F8350070BD73
:10197000012070BD3F8010F038B5856D90F834407F
:10198000012C31D0012480F8344090F83540E4B285
:10199000012C04D0002380F83430022038BD0446E6
:1019A000022084F83500002060652046FFF7FFFE26
:1019B000E26D3F239340AB602268136843F0160347
:1019C00013602268536943F080035361236C23B191
:1019D0002268136843F0080313602268136843F019
:1019E00001031360002038BD022038BD90F8353067
:1019F000DBB2022B03D0802343650120704705230F
:101A000080F835300268136823F00103136000206A
:101A100070470000F0B583B0044600230193724B79
:101A20001D68724BA3FB0535AD0A876D3E68C26D1C
:101A3000082393401E4210D003681A6812F0040F66
:101A40000BD01A6822F004021A60C26D082393407A
:101A5000BB60436D43F001034365E26D0123934096
:101A60001E4209D02268526912F0800F04D0BB6078
:101A7000636D43F002036365E26D042393401E42ED
:101A800009D02268126812F0020F04D0BB60636DA7
:101A900043F004036365E26D102393401E4224D09B
:101AA0002268126812F0080F1FD0BB6023681A6802
:101AB00012F4802F0DD01B6813F4002F04D1236C77
:101AC0009BB12046984710E0A36C73B1204698471D
:101AD0000BE01A6812F4807F03D11A6822F0080222
:101AE0001A60236C0BB120469847E26D2023934087
:101AF0001E4255D02268126812F0100F50D0BB6001
:101B000094F83530DBB2052B0ED023681A6812F436
:101B1000802F33D01B6813F4002F2AD1636C002B65
:101B20003ED0204698473BE02268136823F0160316
:101B300013602268536923F080035361236CA3B1BF
:101B40002268136823F008031360E26D3F2393407B
:101B5000BB60002384F83430012384F83530236DD2
:101B6000002B3FD0204698473CE0A36C002BE7D1E8
:101B7000EBE7E36BA3B12046984711E01A6812F433
:101B8000807F09D11A6822F010021A60002384F8BD
:101B90003430012384F83530E36B0BB1204698478D
:101BA000636DFBB1636D13F0010F17D0052384F84B
:101BB00035302268136823F001031360019B013361
:101BC00001939D4204D323681B6813F0010FF5D1E4
:101BD000002384F83430012384F83530E36C0BB1F2
:101BE0002046984703B0F0BD34000020B5814E1B5D
:101BF000406D7047F0B583B000244BE04FEAD40E3F
:101C00000EF1080E50F82E2004F00706B6000F273C
:101C1000B74022EA07020F6907FA06F6324340F896
:101C20002E2046E0092600E0002606FA0EF6324392
:101C30000233644E46F82320634B1A68EB4302EAF2
:101C400003064F6817F4803F01D045EA02065E4A5A
:101C50001660526803EA02064F6817F4003F01D08D
:101C600045EA0206584A5660926803EA02064F683F
:101C700017F4801F01D045EA0206534A9660D268E5
:101C800013404E6816F4001F01D045EA02034E4A85
:101C9000D36001340F2C00F292800123A3400A6824
:101CA00003EA0205AB42F4D14A68022AA6D0122AFE
:101CB000A4D006684FEA440E032202FA0EF2D24381
:101CC00016404F6807F0030707FA0EF73E43066019
:101CD0004E68771E012F03D9112E01D0122E0FD17D
:101CE00086681640CF6807FA0EF73E43866046685E
:101CF00026EA03034E68C6F30016A640334343604A
:101D0000C3681A408B6803FA0EF31A43C2604B682B
:101D100013F0805FBDD0002301932C4B5A6C42F42A
:101D200080425A645B6C03F480430193019BA308D7
:101D30009E1C244A52F8262004F003064FEA860E21
:101D40000F2606FA0EF622EA0602214FB8423FF4A9
:101D50006BAF204EB04222D006F58066B04220D054
:101D600006F58066B0421ED006F58066B0421CD0F3
:101D700006F58066B0421AD006F58066B04218D0EB
:101D800006F58066B04216D006F58066B04214D0E3
:101D900006F58066B0423FF445AF0A2645E70126C6
:101DA00043E7022641E703263FE704263DE70526F1
:101DB0003BE7062639E7072637E7082635E703B06D
:101DC000F0BD00BF00380140003C01400038024037
:101DD000000002400004024012B90904816170470A
:101DE0008161704708B5054B5B69034200D108BDAE
:101DF000024B586103F0CAF9F9E700BF003C01400B
:101E000003685A6912F4806F0DD06FF480625A61D2
:101E10000423036400230363202280F83D2080F81C
:101E20003C300120704700207047F8B506460C464C
:101E300017461D461EE02DB1FFF7FAF8069BC01AA3
:101E4000854217D200233363202286F83D2086F88E
:101E50003E3086F83C300320F8BD33685B6924EAE5
:101E600003039BB2B3FA83F35B09BB420FD1B5F115
:101E7000FF3FE0D1C4F30743012BEED033689B69E9
:101E800024EA03039BB2B3FA83F35B09EDE7002076
:101E9000F8BDF8B504460D4616461F4632E01A68EE
:101EA00042F400721A6023686FF480625A6104235E
:101EB000236400232363202284F83D2084F83C30EF
:101EC0000120F8BD26B1FFF7B3F8C01B864219D236
:101ED00000232363202284F83D2084F83C30032033
:101EE000F8BD23685B6925EA03039BB2003318BF82
:101EF0000123A3B123685A6912F4806FCFD1B6F1E0
:101F0000FF3FDFD1C5F30743012BEAD023689B696C
:101F100025EA03039BB2003318BF0123E9E7002041
:101F2000F8BD70B504460D46164623685B6913F08C
:101F3000800F19D12046FFF763FFB8B9B5F1FF3F15
:101F4000F3D025B1FFF774F8801B8542EDD2236CE6
:101F500043F02003236400232363202284F83D20E0
:101F600084F83C30032070BD002070BD012070BD9E
:101F70002DE9F04184B00546884616461F460B9C65
:101F80000268136843F48073136000940A9B002274
:101F90004FF00111FFF749FF20B10323184604B0A9
:101FA000BDE8F0812A6808F0FE03136123460A9A0F
:101FB00023492846FFF76DFF30B12B6C042B01D06D
:101FC0000323EBE70123E9E7002303932B685A6916
:101FD00003929B690393039B22460A992846FFF7C5
:101FE000A0FF034658B12B6C042B01D00323D5E787
:101FF0002A68136843F4007313600123CEE7012FAE
:102000000ED02B68320A1A6122460A992846FFF739
:1020100088FF034678B12B6C042B05D00323BDE762
:102020002A68F6B21661B9E72A68136843F40073A8
:1020300013600123B2E72A68F6B21661AEE700BF6B
:10204000020001002DE9F04184B005460E46174616
:1020500098460B9C0268136843F48063136002681F
:10206000136843F48073136000940A9B00224FF0BE
:102070000111FFF7DAFE20B10323184604B0BDE8D2
:10208000F0812B68F6B206F0FE021A6123460A9A26
:102090003D492846FFF7FDFE30B12B6C042B01D0E3
:1020A0000323EAE70123E8E7002303932B685A6937
:1020B00003929B690393039B22460A992846FFF7E4
:1020C00030FF58B12B6C042B01D00323D5E72A68CD
:1020D000136843F4007313600123CEE7B8F1010FD6
:1020E0000DD02B683A0A1A6122460A992846FFF752
:1020F00018FFC8B12B6C042B0FD00323BDE72B684E
:10210000FFB21F6122460A992846FFF70AFFB0B1C5
:102110002B6C042B0CD00323AFE72A68136843F41D
:10212000007313600123A8E72B68FFB21F61E9E782
:102130002A68136843F40073136001239DE72A683B
:10214000136843F48073136000940A9B00224FF0DD
:1021500001112846FFF769FE08B103238DE72B68BC
:1021600046F001061E6123460A9A07492846FFF7F2
:1021700090FE0346002880D02B6C042B01D0032353
:102180007BE7012379E700BF0200010070B5044638
:102190000D46164623685B6913F0040F19D12046DB
:1021A000FFF72EFEB8B9B5F1FF3FF3D025B1FEF72A
:1021B0003FFF801B8542EDD2236C43F02003236454
:1021C00000232363202284F83D2084F83C30032040
:1021D00070BD002070BD012070BD70B505460C4675
:1021E00016462B685A6912F0400F22D15A6912F034
:1021F000100F11D124B1FEF71BFF801B8442F0D2D7
:102200002B6C43F020032B64202385F83D30002302
:1022100085F83C30032070BD6FF010025A61002336
:102220002B642B63202285F83D2085F83C3001206B
:1022300070BD002070BD0000002800F0828038B51D
:10224000044690F83D30002B41D0242384F83D30E3
:102250002268136823F00103136000F00DFF3A4B6E
:10226000A3FB00239B0C2268536021686568374AF2
:10227000954231D801330B6221686368334A934237
:1022800034D85B00B0FBF3F0C0F30B03032B00D892
:102290000420C8612268E369216A0B431360226845
:1022A0002369E1680B43936022686369A1690B436A
:1022B000D3602268136843F0010313600020206498
:1022C000202384F83D30206384F83E0038BD80F838
:1022D0003C3002F063FEB8E74FF4967202FB03F362
:1022E0001B4AA2FB03239B090133C4E7A5688DB9F0
:1022F00003EB4302B0FBF2F2C2F30B02B2FA82F23A
:102300005209E2B995B903EB4303B0FBF3F040F493
:102310000040BEE703EB830202EB8202B0FBF2F265
:10232000C2F30B02B2FA82F25209EAE703EB83032B
:1023300003EB8303B0FBF3F040F44040A9E7012036
:10234000A7E70120704700BF83DE1B43A086010082
:10235000D34D62102DE9F04182B004460E46174677
:102360009846FEF765FE94F83D30DBB2202B04D092
:102370000223184602B0BDE8F081054600901923FB
:10238000012251492046FFF750FD08B10223F0E732
:1023900094F83C30012B00F09480012384F83C3009
:1023A00023681A6812F0010F03D11A6842F0010283
:1023B0001A602268136823F400631360212384F8F1
:1023C0003D30402384F83E3000232364089B636241
:1023D000BDF8243063853D4BE362638D2385019511
:1023E0000A9B009343463A4631462046FFF7C0FD1C
:1023F000C0B1236C042B04D0002384F83C300323A9
:10240000B7E7002384F83C300123B2E7236C042BA8
:1024100001D00323ADE72268136843F4007313600F
:102420000123A6E7238D002B2AD02A460A992046AD
:10243000FFF777FD0028E9D12268636A591C6162C1
:102440001B781361228D013A92B22285638D9BB273
:10245000013B9BB263852368596911F0040FE1D0F9
:10246000002ADFD0626A511C616212781A61238DE2
:10247000013B2385638D9BB2013B9BB26385D1E712
:102480002A460A992046FFF781FE034658B1236C7D
:10249000042B01D003236CE72268136843F4007314
:1024A0001360012365E721680A6842F400720A603C
:1024B000202284F83D20002284F83E2084F83C202D
:1024C00057E7022355E700BF020010000000FFFF9E
:1024D0002DE9F04186B004460D4617469846FEF7B2
:1024E000A7FD94F83D30DBB2202B04D0022528460E
:1024F00006B0BDE8F08106460090192301228E49FE
:102500002046FFF792FC08B10225F0E794F83C3032
:10251000012B00F04C81012384F83C3023681A68B9
:1025200012F0010F03D11A6842F001021A6022680A
:10253000136823F400631360222384F83D304023A2
:1025400084F83E30002323640C9B6362BDF8343072
:1025500063857A4BE362638D238501960E9B00931E
:1025600043463A4629462046FFF76CFD054660B1D2
:10257000236C042B04D0002384F83C300325B6E7F9
:10258000002384F83C300125B1E7238D5BB9029329
:1025900023685A6902929A690292029A1A6842F46E
:1025A00000721A6078E0012B0AD0022B1AD00023A7
:1025B000059323685A6905929B690593059B6BE017
:1025C0002268136823F48063136000230393236855
:1025D0005A6903929A690392039A1A6842F4007244
:1025E0001A6059E02268136823F48063136022683C
:1025F000136843F4006313600023049323685A694B
:1026000004929B690493049B46E032460E9920464F
:10261000FFF7E3FD70B9636A5A1C626222681269AF
:102620001A70238D013B2385638D9BB2013B9BB2C6
:10263000638531E0236C202B01D0012557E703256A
:1026400055E700960E9B00223D492046FFF7EDFB23
:10265000002840F0AE802268136843F400731360D2
:10266000636A5A1C6262226812691A70238D013BE8
:102670002385638D9BB2013B9BB26385636A5A1CC1
:102680006262226812691A70238D013B2385638D73
:102690009BB2013B9BB26385238D002B7ED0032B25
:1026A00050D8012BB1D0022BCBD000960E9B00222C
:1026B00023492046FFF7B9FB00287CD12268136824
:1026C00023F480631360636A5A1C62622268126991
:1026D0001A70238D013B2385638D9BB2013B9BB216
:1026E000638500960E9B002215492046FFF79DFB4F
:1026F000002862D12268136843F400731360636A90
:102700005A1C6262226812691A70238D013B23856C
:10271000638D9BB2013B9BB26385636A5A1C626204
:10272000226812691A70238D013B2385638D9BB249
:10273000013B9BB26385AFE7020010000000FFFF82
:102740000400010032460E992046FFF746FD00BB0B
:10275000636A5A1C6262226812691A70238D013BF7
:102760002385638D9BB2013B9BB2638523685A69C5
:1027700012F0040F90D0626A511C61621B691370E1
:10278000238D013B2385638D9BB2013B9BB2638507
:1027900082E7236C202B12D10325A8E6202384F89E
:1027A0003D30002384F83E3084F83C309FE602251B
:1027B0009DE603259BE6032599E6032597E601257B
:1027C00095E600BF2DE9F04387B004460E46174654
:1027D0009846BDF83C5000230593FEF729FC94F879
:1027E0003D30DBB2202B04D00223184607B0BDE8F1
:1027F000F0838146604B1B68DB08604AA2FB032321
:102800001B0A03EB830303EB83030593059B5A1E0B
:102810000592002B55D023689A6912F0020FF5D16A
:1028200094F83C20012A00F0A580012284F83C2085
:102830001A6812F0010F03D11A6842F001021A60FF
:102840002268136823F400631360222384F83D3068
:10285000402384F83E30002323640E9B6362658529
:10286000474BE362638D9BB22385002B57D0A36B4C
:10287000444ADA63A36B444ADA64A26B002313640C
:10288000A26B5364A26B9364A26B13652168238DC2
:10289000626A1031A06BFFF76FF8CDF80490232324
:1028A000009343463A4631462046FFF7CBFB0346AA
:1028B000A0B1236C042B0CD0002384F83C300323FC
:1028C00093E72363202284F83D2084F83C300323DF
:1028D0008BE7002384F83C30012386E7012D18D0D4
:1028E00021684A6842F480524A60002103912268BC
:1028F0005069039090690390039884F83C105168E4
:1029000041F48071516021684A6842F400624A6073
:102910006BE721680A6822F480620A60E5E7CDF877
:1029200004902323009343463A4631462046FFF75E
:1029300089FB034660B1236C042B04D0002384F888
:102940003C30032351E7002384F83C3001234CE75B
:1029500000200490226851690491916904910499BE
:10296000116841F400711160202284F83D2084F840
:102970003C003AE7022338E73400002089B5F81418
:102980000000FFFFC5290008912900087047704723
:1029900010B5846BFFF72CF9022812D02268136857
:1029A00023F48063136000236385202284F83D2094
:1029B00084F83E30236C43F0100323642046FFF775
:1029C000E6FF10BD08B5806B90F83D30DBB290F8A3
:1029D0003E20212B2AD0D2B2222B25D002681368A8
:1029E00023F4806313600268136843F40073136078
:1029F0000268536823F4805353600268536823F4D9
:102A00000063536000234385036CE3B9202380F8FF
:102A10003D3090F83E30DBB2402B17D0002380F8D9
:102A20003E30FFF7B3FF08BD202AD7D102685368B4
:102A300023F400635360002343850268536843F422
:102A40004073536008BDFFF7A2FF08BD002380F864
:102A50003E3002F08DFB08BD10B582B0002301931B
:102A6000194B1A6C42F080521A641B6C03F08053AD
:102A70000193019B0122154B1A60FEF7D9FA044617
:102A8000134B5B6813F4803F08D1FEF7D1FA001BAB
:102A9000B0F57A7FF4D9032002B010BD01220D4BAE
:102AA0001A60FEF7C5FA0446094B5B6813F4003F51
:102AB00007D1FEF7BDFA001BB0F57A7FF4D90320E9
:102AC000EAE70020E8E700BF0038024040000E427D
:102AD0000070004044000E42002800F0BB8170B539
:102AE00082B00446036813F0010F3BD0A74B9B68EC
:102AF00003F00C03042B2CD0A44B9B6803F00C03B5
:102B0000082B21D06368B3F5803F4FD0B3F5A02FD9
:102B100052D09E4B1A6822F480321A601A6822F44E
:102B200080221A606368002B50D0FEF781FA0546B8
:102B3000964B1B6813F4003F14D1FEF779FA401B43
:102B40006428F5D903208AE1904B5B6813F4800F69
:102B5000D8D08E4B1B6813F4003F03D06368002B62
:102B600000F07A81236813F0020F55D0874B9B68E1
:102B700013F00C0F3ED0854B9B6803F00C03082B21
:102B800033D0E368002B68D00122814B1A60FEF736
:102B90004FFA05467D4B1B6813F0020F54D1FEF728
:102BA00047FA401B0228F5D9032058E1774A1368F9
:102BB00043F480331360B5E7744B1A6842F4802203
:102BC0001A601A6842F480321A60ABE7FEF730FAF6
:102BD00005466E4B1B6813F4003FC3D0FEF728FA7E
:102BE000401B6428F5D9032039E1684B5B6813F476
:102BF000800FC6D1654B1B6813F0020F04D0E36849
:102C0000012B01D001202AE1604A136823F0F80368
:102C1000216943EAC1031360236813F0080F40D011
:102C2000636963B301225B4B1A60FEF701FA054644
:102C3000564B5B6F13F0020F33D1FEF7F9F9401BCF
:102C40000228F5D903200AE1504A136823F0F8035B
:102C5000216943EAC1031360DEE700224C4B1A608E
:102C6000FEF7E6F90546494B1B6813F0020FD3D077
:102C7000FEF7DEF9401B0228F5D90320EFE0002221
:102C8000444B1A60FEF7D4F90546404B5B6F13F0D6
:102C9000020F06D0FEF7CCF9401B0228F5D903201D
:102CA000DDE0236813F0040F79D0384B1B6C13F070
:102CB000805F33D100230193344B1A6C42F0805271
:102CC0001A641B6C03F080530193019B0125324B66
:102CD0001B6813F4807F23D0A368012B34D0052B0D
:102CE00038D02A4B1A6F22F001021A671A6F22F0AD
:102CF00004021A67A368002B36D0FEF799F906463E
:102D0000224B1B6F13F0020F48D1FEF791F9801B85
:102D100041F288339842F3D90320A0E00025D6E79A
:102D20001D4A136843F480731360FEF781F9064669
:102D3000194B1B6813F4807FCED1FEF779F9801B05
:102D40000228F5D903208AE0104A136F43F00103EB
:102D50001367CFE70D4B1A6F42F004021A671A6F20
:102D600042F001021A67C5E7FEF762F90646074B13
:102D70001B6F13F0020F11D0FEF75AF9801B41F2BE
:102D800088339842F3D9032069E000BF003802403D
:102D900000004742800E474200700040E5B9A36939
:102DA000002B5BD0304A926802F00C02082A58D0FF
:102DB000022B17D000222D4B1A60FEF739F904467A
:102DC000294B1B6813F0007F42D0FEF731F9001B3E
:102DD0000228F5D9032042E0234A136C23F08053E4
:102DE0001364DCE70022214B1A60FEF721F9054647
:102DF0001D4B1B6813F0007F06D0FEF719F9401B2E
:102E00000228F5D903202AE0E369226A1343626AA3
:102E100043EA8213A26A5208013A43EA0243E26A91
:102E200043EA0263104A53600122104B1A60FEF716
:102E3000FFF804460C4B1B6813F0007F06D1FEF729
:102E4000F7F8001B0228F5D9032008E0002006E06F
:102E5000002004E001207047012000E0002002B0C3
:102E600070BD0120FBE700BF003802406000474210
:102E7000F8B5254B9B6803F00C03042B41D0082BBD
:102E800001D02248F8BD204B5A6802F03F025B682F
:102E900013F4800F12D01C4B5968C1F38811002322
:102EA0001B48A1FB0001FDF75BFE174B5B68C3F3FA
:102EB000014301335B00B0FBF3F0F8BD124B5B68DC
:102EC000C3F388131E4600275C010025E41A65EB56
:102ED0000705A90141EA9461A001001B61EB05010E
:102EE000CB0043EA5073C400A01943EB07018B02E7
:102EF00043EA90538402204619460023FDF730FE32
:102F0000D3E70348F8BD00BF003802400024F400B6
:102F100080BA8C01002800F09D8070B504464F4BAC
:102F20001B6803F00F038B4209D2CBB24B4A1370DC
:102F3000136803F00F03994201D0012070BD23688C
:102F400013F0020F17D013F0040F04D0444A936813
:102F500043F4E0539360236813F0080F04D0404A11
:102F6000936843F4604393603D4A936823F0F00311
:102F7000A068034393600D46236813F0010F32D01D
:102F80006368012B21D09A1E012A25D9344A126880
:102F900012F0020F60D032498A6822F00302134314
:102FA0008B60FEF745F806462D4B9B6803F00C033B
:102FB0006268B3EB820F16D0FEF73AF8801B41F23D
:102FC00088339842F0D9032070BD254A126812F464
:102FD000003FE0D1012070BD214A126812F0007F4D
:102FE000D9D1012070BD1D4B1B6803F00F039D421A
:102FF00009D2EAB2194B1A701B6803F00F039D4205
:1030000001D0012070BD236813F0040F06D0144ACC
:10301000936823F4E053E1680B439360236813F053
:10302000080F07D00E4A936823F46043216943EAEE
:10303000C1039360FFF71CFF094B9B68C3F30313A5
:10304000084AD35CD840084B18600020FDF7A6FF63
:10305000002070BD01207047012070BD003C02407F
:10306000003802400883000834000020014B186833
:10307000704700BF3400002008B5FFF7F7FF044B8E
:103080009B68C3F38223034AD35CD84008BD00BFCA
:10309000003802401883000808B5FFF7E7FF044B2B
:1030A0009B68C3F34233034AD35CD84008BD00BFDA
:1030B000003802401883000800283BD010B50446B1
:1030C0000023836290F85130002B2ED0022384F825
:1030D00051302268136823F040031360226863684C
:1030E000A1680B43E1680B4321690B4361690B4302
:1030F000A16901F400710B43E1690B43216A0B43A1
:10310000A16A0B4313602268638B03F00403616AB6
:103110000B4353602268D36923F40063D36100201A
:103120006065012384F8513010BD80F8503002F002
:10313000C9FACBE70120704730B4036A23F00103DA
:103140000362036A4468826922F073020D682A43AD
:1031500023F002038D682B430F4DA8421AD005F5CA
:103160008065A84214D000255DB123F00803CD6826
:103170002B4323F0040324F440744D692C438D69E0
:103180002C43446082614A684263036230BC7047EA
:103190000125E9E70125E7E70000014030B4036AB3
:1031A00023F480730362036A4468C26922F07302E5
:1031B0000D682A4323F400738D6843EA0523114DFB
:1031C000A8421DD005F58065A84217D0002575B12D
:1031D00023F40063CD6843EA052323F4806324F4D9
:1031E00040544D6944EA05148D6944EA051444606D
:1031F000C2614A68C263036230BC70470125E6E7DA
:103200000125E4E70000014030B4036A23F4805351
:103210000362036A4468C26922F4E6420D6842EA26
:10322000052223F400538D6843EA05330C4DA84270
:1032300013D005F58065A8420DD0002525B124F4F2
:1032400080444D6944EA85144460C2614A6802645E
:10325000036230BC70470125F0E70125EEE700BFAF
:103260000000014010B4036A046A24F001040462FF
:10327000846924F0F00444EA021223F00A030B43A9
:10328000826103625DF8044B704710B4036A23F057
:10329000100303628469036A24F4704444EA02322E
:1032A00023F0A00343EA0113826103625DF8044B3B
:1032B0007047836823F0700341F007010B4383607C
:1032C000704710B4846824F47F4442EA032319430E
:1032D0000C4384605DF8044B7047022380F839305A
:1032E0000268136843F001031360012380F839304A
:1032F00000207047704790F83830012B7DD010B512
:103300000446012380F83830022380F839300268FF
:10331000936823F47F4323F0770393600B68402B7B
:1033200057D010D9702B3ED01FD8502B47D0602BD0
:1033300032D1CA6849680068FFF7A7FF602120689A
:10334000FFF7B7FF28E0102B4DD008D9202B4FD026
:10335000302B21D130210068FFF7ABFF1CE0DBB937
:1033600000210068FFF7A5FF16E0B3F5805F0ED0DF
:10337000B3F5005F10D1CB684A6889680068FFF731
:10338000A0FF2268936843F48043936004E00268DE
:10339000936823F007039360012384F839300020F9
:1033A00084F8380010BDCB684A6889680068FFF768
:1033B00088FF2268936843F077039360ECE7CA685C
:1033C00049680068FFF74EFF50212068FFF771FF42
:1033D000E2E7CA6849680068FFF744FF40212068B7
:1033E000FFF767FFD8E710210068FFF762FFD3E718
:1033F00020210068FFF75DFFCEE702207047000044
:103400000368454A90424AD0B0F1804F49D0A2F5B6
:103410007C42904247D002F58062904245D002F54E
:103420008062904243D002F57842904235D000222B
:103430001AB123F070034A681343374A90423AD0D6
:10344000B0F1804F50D0A2F57C4290424ED002F5B0
:10345000806290424CD002F5806290424AD002F5E0
:103460007842904248D002F57052904246D002F520
:103470008062904244D002F58062904242D0A2F530
:103480009832904240D002F5806290423ED002F5E0
:10349000806290420DD000220EE00122C8E7012296
:1034A000C6E70122C4E70122C2E70122C0E70122E8
:1034B000BEE7012200E001221AB123F44073CA687A
:1034C000134303608B68C3620B688362124B98429C
:1034D00020D003F5806398421AD000230BB10B690A
:1034E00003630123436170470122E5E70122E3E71B
:1034F0000122E1E70122DFE70122DDE70122DBE72C
:103500000122D9E70122D7E70122D5E70122D3E73B
:103510000123E3E70123E1E700000140A8B110B572
:10352000044690F839305BB1022384F83930211D0C
:103530002068FFF765FF012384F83930002010BDB3
:1035400080F8383002F042FAEEE701207047A8B167
:1035500010B5044690F839305BB1022384F8393055
:10356000211D2068FFF74CFF012384F8393000202B
:1035700010BD80F83830FFF7BDFEEEE70120704740
:1035800030B4036A23F010030362036A446882695B
:1035900022F4E6420D6842EA052223F020038D68FA
:1035A00043EA0513114DA8421DD005F58065A842D8
:1035B00017D0002575B123F08003CD6843EA0513C9
:1035C00023F0400324F440644D6944EA85048D6986
:1035D00044EA8504446082614A688263036230BCC5
:1035E00070470125E6E70125E4E700BF0000014040
:1035F00038B590F83830012B66D00D4604460123CB
:1036000080F83830022380F839300C2A1AD8DFE8E5
:1036100002F0071919192019191934191919470035
:103620000068FFF789FD2268936943F008039361FE
:103630002268936923F004039361226893692969DE
:103640000B439361012384F83930002084F838005B
:1036500038BD0068FFF794FF2268936943F4006364
:1036600093612268936923F480639361226893696C
:10367000296943EA01239361E4E70068FFF78EFDBF
:103680002268D36943F00803D3612268D36923F029
:103690000403D3612268D36929690B43D361D1E75D
:1036A0000068FFF7B1FD2268D36943F40063D3617A
:1036B0002268D36923F48063D3612268D3692969BE
:1036C00043EA0123D361BDE7022038BD90F83830CA
:1036D000012B22D030B4012280F83820022380F858
:1036E00039300468636823F07003636004686368BA
:1036F0000D682B4363600468A36823F08003A36014
:103700000468A36849680B43A36080F8392000234C
:1037100080F83830184630BC70470220704790F867
:103720003830012B25D0012380F83830CB6823F4C2
:1037300040738A68134323F480634A68134323F475
:1037400000630A68134323F480530A69134323F484
:1037500000534A69134323F480438A69134323F4D3
:103760000043134302685364002380F8383018463E
:103770007047022070470268D36823F0C003D3600B
:10378000202380F8393070470268D36823F490739F
:10379000D3600268536923F001035361202380F84A
:1037A0003A30704790F83930DBB2212B01D002203B
:1037B00070478368B3F5805F17D00268036A591CAD
:1037C00001621B785360C38C9BB2013B9BB2C384E4
:1037D000DBB90268D36823F08003D3600268D36842
:1037E00043F04003D36000207047036A02681B88DF
:1037F000C3F30803536003691BB9036A023303620E
:10380000E1E7036A01330362DDE70020704700004F
:103810002DE9F04704460268136923F44053C16858
:103820000B4313610168CB6823F4164323F00C03A8
:1038300082680069024360690243E06902431343FE
:10384000CB602268536923F44073A1690B43536131
:10385000E369B3F5004F62D0D4F80080BB4B9845C4
:1038600000F01B8103F58063984500F01681FFF797
:1038700003FC00EB800000EB80006568AD00B0FB4E
:10388000F5F5B34FA7FB05356D092E01FFF7F4FBE6
:1038900000EB800000EB80006568AD00B0FBF5FA3E
:1038A000FFF7EAFB00EB800000EB80006568AD00ED
:1038B000B0FBF5F5A7FB05356D094FF0640909FB71
:1038C00015A52D013235A7FB05356D0905F0F0056D
:1038D0003544FFF7D1FB00EB800000EB8000666809
:1038E000B600B0FBF6F6FFF7C7FB00EB800000EB7D
:1038F000800063689B00B0FBF3F0A7FB0030400939
:1039000009FB10694FEA091909F13209A7FB0937C8
:10391000C7F343172F44C8F80870BDE8F087D4F800
:10392000008003F1804303F5104398455CD003F514
:103930008063984558D0FFF79FFB00EB800000EBB9
:10394000800065686D00B0FBF5F5814FA7FB05357C
:103950006D092E01FFF790FB00EB800000EB80006B
:1039600065686D00B0FBF5FAFFF786FB00EB8000A1
:1039700000EB800065686D00B0FBF5F5A7FB053531
:103980006D094FF0640909FB15A5ED003235A7FB61
:1039900005356D096D0005F4F8753544FFF76CFBCE
:1039A00000EB800000EB800066687600B0FBF6F666
:1039B000FFF762FB00EB800000EB800063685B00B8
:1039C000B0FBF3F3A7FB03235B0909FB13694FEA81
:1039D000C90909F13209A7FB0937C7F342172F4478
:1039E000C8F80870BDE8F087FFF756FB00EB8000D1
:1039F00000EB800065686D00B0FBF5F5544FA7FB48
:103A000005356D092E01FFF747FB00EB800000EB49
:103A1000800065686D00B0FBF5FAFFF73DFB00EB39
:103A2000800000EB800065686D00B0FBF5F5A7FB3A
:103A300005356D094FF0640909FB15A5ED00323518
:103A4000A7FB05356D096D0005F4F8753544FFF7E2
:103A500023FB00EB800000EB800066687600B0FB83
:103A6000F6F6FFF719FB00EB800000EB80006368BF
:103A70005B00B0FBF3F3A7FB03235B0909FB1369AE
:103A80004FEAC90909F13209A7FB0937C7F3421701
:103A90002F44C8F80870BDE8F087FFF7FDFA00EB87
:103AA000800000EB80006568AD00B0FBF5F5284FA5
:103AB000A7FB05356D092E01FFF7EEFA00EB80003C
:103AC00000EB80006568AD00B0FBF5FAFFF7E4FAA3
:103AD00000EB800000EB80006568AD00B0FBF5F501
:103AE000A7FB05356D094FF0640909FB15A52D01EC
:103AF0003235A7FB05356D0905F0F0053544FFF7B4
:103B0000CBFA00EB800000EB80006668B600B0FBEB
:103B1000F6F6FFF7C1FA00EB800000EB8000636867
:103B20009B00B0FBF3F3A7FB03235B0909FB1369BD
:103B30004FEA091909F13209A7FB0937C7F34317FF
:103B40002F44C8F80870BDE8F08700BF001001409E
:103B50001F85EB512DE9F04105460F461646984664
:103B6000069C2B681B6837EA03030CBF0123002364
:103B7000B3421ED1B4F1FF3FF3D02CB1FDF758FA98
:103B8000A0EB08008442ECD22A68D36823F4D073F7
:103B9000D3602A68536923F001035361202385F819
:103BA000393085F83A30002385F838300320BDE8F5
:103BB000F0810020BDE8F08158B310B5044690F8BC
:103BC00039300BB3242384F839302268D36823F4C6
:103BD0000053D3602046FFF71BFE2268136923F4CD
:103BE000904313612268536923F02A0353612268CA
:103BF000D36843F40053D3600020E063202384F8AB
:103C0000393084F83A3010BD80F8383002F03CF991
:103C1000D8E7012070472DE9F04182B01E4690F8A8
:103C20003930DBB2202B04D00223184602B0BDE8A5
:103C3000F08104460D469046002955D0002A55D003
:103C400090F83830012B01D10223EEE7012380F8F0
:103C500038300023C363212380F83930FDF7E8F9B9
:103C60000746A4F82480A4F8268010E000963B467E
:103C7000002280212046FFF76DFF002838D12268FE
:103C80002B88C3F3080353602369CBB90235E38C57
:103C90009BB2BBB1E38C9BB2013B9BB2E384A368B4
:103CA000B3F5805FE2D000963B460022802120469B
:103CB000FFF750FFF0B923682A785A600135E6E72C
:103CC0000135E4E700963B46002240212046FFF7FD
:103CD00041FF034608B10323A7E7202284F83920D7
:103CE000002284F83820A0E701239EE701239CE707
:103CF00003239AE7032398E730B583B090F83A405E
:103D0000E4B2202C02D0022003B030BD00293DD007
:103D1000002A3DD090F83830012B01D10220F3E782
:103D200013460A460446012180F8381082628385D2
:103D30000025C563222180F83A10416B1548C863FD
:103D4000616B15480864616B1448C864616B0D654C
:103D500021680431606BFDF70FFE019523681A6836
:103D600001925A680192019A84F83850DA6842F454
:103D70008072DA602268536943F00103536122685C
:103D8000536943F0400353612846BDE70120BBE778
:103D90000120B9E7BB3D00088F3E00089B3E0008AC
:103DA00008B50168CB6823F04003CB60202380F87E
:103DB000393001F08EF9002008BD08B5836B026828
:103DC000126812F4807F13D10022DA851968CA685C
:103DD00022F48072CA6019684A6922F001024A61BD
:103DE00019684A6922F040024A61202283F83A2089
:103DF000184601F06DF908BD08B590F83A30DBB20D
:103E0000222B01D0022008BD8368B3F5805F0FD05C
:103E100003690BBB836A5A1C8262026852681A707B
:103E2000C38D9BB2013B9BB2C385F3B1002008BD9B
:103E3000826A036943B903685B68C3F308031380AC
:103E4000836A02338362EBE703685B68DBB213804B
:103E5000836A01338362E3E7826A531C83620368E7
:103E60005B6803F07F031370DAE70268D36823F41A
:103E70009073D3600268536923F0010353612023D8
:103E800080F83A3001F024F9002008BD704708B5E9
:103E9000806BFFF7FBFF08BD704710B5846B23688C
:103EA0005A6994F83930DBB2212B10D023685A6953
:103EB00002F0400294F83A30DBB2222B11D0E36BCF
:103EC00043F01003E3632046FFF7E6FF10BD02F066
:103ED0008002002AEAD00023E3842046FFF74BFC4F
:103EE000E4E7002AEBD00023E3852046FFF74CFCF3
:103EF000E5E7000010B5044602681368D16852690E
:103F000013F00F0005D113F0200F02D011F0200F95
:103F100053D1002867D012F0010202D111F4907F32
:103F200061D013F0010F06D011F4807F03D0E06B55
:103F300040F00100E06313F0040F04D01AB1E06B0D
:103F400040F00200E06313F0020F04D01AB1E06BFE
:103F500040F00400E06313F0080F04D01AB1E26BE4
:103F600042F00802E263E26B002A48D013F0200F0F
:103F700002D011F0200F24D123685B6903F04003C5
:103F8000E26B12F0080F00D13BB32046FFF7FCFBB9
:103F900023685A6912F0400F1BD05A6922F0400280
:103FA0005A61636B8BB11A4A1A65606BFDF71EFD8F
:103FB00028B3606B036D984710BD2046FFF71CFFC8
:103FC00010BD2046FFF718FFD6E72046FFF764FF35
:103FD00010BD2046FFF760FF10BD2046FFF75CFFD5
:103FE0000023E36310BD13F0800F02D011F0800FA7
:103FF00006D113F0400F02D011F0400F04D110BDD4
:104000002046FFF7CFFB10BD2046FFF7C9FEF6E7BD
:104010001540000808B5806B0023C385C384FFF7F3
:104020003BFF08BD014B93ED000A7047200D0020B7
:10403000014B93ED000A70478C0B0020014B93ED70
:10404000000A70471C0D0020014B93ED000A7047D9
:104050008C0E0020014B93ED000A7047540A00209B
:10406000014B93ED000A704758110020014B93ED6E
:10407000000A704720100020014B93ED000A7047A2
:1040800010100020014B93ED000A7047880B0020B0
:10409000014B93ED000A70477C0B002010B584B0F3
:1040A0000A4B1C7E4FF0FF330293019100920123D3
:1040B000024604FA03F10648FEF70AFA10B9012095
:1040C00004B010BD4FF0FF30FAE700BF0800002039
:1040D000101400202DE9F0418E4A15213B20FFF7F6
:1040E000DDFF0028C0F212818A4B1A78587840EA26
:1040F000022000B2884A10809A78DC7844EA0224D0
:1041000024B2864A14801A7993F805C04CEA022C2E
:104110000FFA8CFC824AA2F800C09A79DF7947EA4C
:1041200002273FB27F4A17801A7A5D7A45EA022554
:104130002DB27D4A15809A7ADE7A46EA022636B298
:104140007A4A16801A7B93F80DE04EEA022E0FFA97
:104150008EFE774AA2F800E0DA7B997B41EA0221E1
:1041600009B2744A118093F811801A7C42EA08223D
:1041700012B2DFF82882A8F8002093F813809B7C05
:1041800043EA08231BB2DFF81882A8F8003007EED4
:10419000904AF8EEE77A684C94ED007A67EE877AF9
:1041A000664CD4ED006A77EEE67A654CD4ED006A91
:1041B00067EEA67ADFF8EC81C8ED007A07EE900A88
:1041C000F8EEE77A67EE277A5E48D0ED006A77EE80
:1041D000E67AD4ED016A67EEA67A5B48C0ED007A14
:1041E000CCF1000007EE900AF8EEE77A27EE277A86
:1041F0005648D0ED007A37EE677AD4ED027A27EE92
:10420000277A534880ED007A07EE906AF8EEE77A55
:10421000504890ED007A67EE877A4F48D0ED006AFB
:1042200077EEE67A4D48C0ED007A07EE905AF8EE48
:10423000E77A67EE277A4A48D0ED006A77EEE67AA9
:104240004848C0ED007ACEF1000007EE900AF8EE83
:10425000E77A27EE277A4448D0ED007A37EE677A7E
:10426000424880ED007A07EE901AF8EEE77A40496E
:1042700091ED007A67EE877A3E4991ED007A77EE0C
:10428000C77A94ED037A67EE877A3B49C1ED007AED
:1042900007EE902AF8EEE77A384A92ED007A67EE58
:1042A000877A374A92ED007A77EEC77A94ED047AEE
:1042B00067EE877A334AC2ED007A07EE903AF8EE5D
:1042C000E77A314B93ED007A67EE877A2F4B93EDC7
:1042D000007A77EEC77A94ED057A67EE877A2C4BF1
:1042E000C3ED007A07EE907AF8EEE77AF3EE056A0E
:1042F00077EEE67A9FED276A87EE867A77EE267A62
:10430000254BC3ED007A0120BDE8F0814FF0FF306E
:10431000BDE8F081940B0020880E00207C0E002068
:10432000FC1200209E11002000100020820B0020B3
:104330009C11002004130020841100200410002090
:10434000080000200C1000208C0B0020BC0B00206B
:104350001C0D0020A4110020541100208C0E002000
:10436000940E0020540A002018100020581100203C
:10437000840B0020780E0020201000205011002017
:10438000840E002010100020680600207811002004
:10439000880B00205CEFA6437C0B00205402002019
:1043A00074110020200D002070B586B005460C4623
:1043B00006AA02F8041D114B197E4FF0FF33029339
:1043C000012301930092024699400D48FDF7C2FF78
:1043D00070B90A20FCF732FE0A4E32460121284607
:1043E000FFF75CFE33789C4205D1012006B070BD1A
:1043F0004FF0FF30FAE74FF0FF30F7E708000020FA
:1044000010140020940B002010B5044603280CD88B
:10441000DFE800F0020F192300211B20FFF7C4FF83
:10442000002824DB184A194B1A60194B1C70012014
:1044300010BD08211B20FFF7B7FF00281ADB154A23
:10444000124B1A60F1E710211B20FFF7ADFF002887
:1044500013DB114A0D4B1A60E7E718211B20FFF709
:10446000A3FF00280CDB0D4A084B1A60DDE74FF074
:10447000FF3010BD4FF0FF3010BD4FF0FF3010BDCA
:104480004FF0FF3010BD00BFE3A00B39A411002096
:10449000900E0020E3A08B39E3A00B3AE3A08B3A07
:1044A00010B50446052810D8DFE800F003132231C8
:1044B000404F01211D20FFF777FF002854DB012129
:1044C0001A20FFF771FF002851DB324B1C700120CE
:1044D00010BD02211D20FFF767FF00284ADB0221E3
:1044E0001A20FFF761FF0028EFDA6FF0010010BD1E
:1044F00003211D20FFF758FF00283EDB03211A206F
:10450000FFF752FF0028E0DA6FF0010010BD042130
:104510001D20FFF749FF002832DB04211A20FFF796
:1045200043FF0028D1DA6FF0010010BD05211D20E6
:10453000FFF73AFF002826DB05211A20FFF734FF9A
:104540000028C2DA6FF0010010BD06211D20FFF720
:104550002BFF00281ADB06211A20FFF725FF002871
:10456000B3DA6FF0010010BD4FF0FF3010BD6FF0F7
:10457000010010BD4FF0FF3010BD4FF0FF3010BDF7
:104580004FF0FF3010BD4FF0FF3010BD4FF0FF3047
:1045900010BD00BF9411002070B505460C461646AC
:1045A0008C212520FFF700FF002817DB2946262055
:1045B000FFF7FAFE002814DB44F080012720FFF704
:1045C000F3FE002810DB0120FCF738FD32462146BF
:1045D0004920FFF763FD064B186070BD4FF0FF30B8
:1045E00070BD6FF0010070BD6FF0020070BD00BFC4
:1045F0007C11002038B504460D460C212520FFF71C
:10460000D3FE00281EDB21462620FFF7CDFE002822
:104610001BDB29466320FFF7C7FE002818DB81213A
:104620002720FFF7C1FE002815DB0F4A0121204695
:10463000FFF7B2FF002811DB0B4B1B789D4210D116
:10464000012038BD4FF0FF3038BD6FF0010038BD9C
:104650006FF0020038BD6FF0030038BD6FF004004A
:1046600038BD6FF0050038BD940B002010B504462E
:1046700013211920FFF798FE00283ADB092C20D9D6
:1046800000210A20FFF7B6FF002835DB6420FCF785
:10469000D5FC12210A20FFF7ADFF00282FDB642094
:1046A000FCF7CCFC1C4A07210320FFF775FF2146CD
:1046B0001920FFF779FE00282ADB184B1C70012017
:1046C00010BD00210A20FFF795FF00281ADB6420A7
:1046D000FCF7B4FC16210A20FFF78CFF002814DB3E
:1046E0006420FCF7ABFC0C4A07210320FFF754FFC2
:1046F000DDE74FF0FF3010BD6FF0010010BD6FF02F
:10470000020010BD6FF0010010BD6FF0020010BD7F
:104710006FF0030010BD00BF940B0020801100203B
:104720002DE9F8430020FFF76FFE0028C0F2A380B8
:104730000320FFF7B5FE0028C0F2A1801320FFF789
:1047400095FF0028C0F29F80002200235449C1E950
:1047500000235449C1E900235349C1E9002300263D
:1047600057E0FFF7B7FCFFF76FFC504BD3ED007A33
:1047700070EE277A17EE900AFBF7B4FE8046894662
:104780004B4BD869FBF78CFE04460D4602460B46A0
:1047900040464946FCF724F8414F02460B46D7E90C
:1047A0000001FBF741FDC7E90001FFF753FC414B56
:1047B000D3ED007A70EE277A17EE900AFBF792FE9F
:1047C00022462B46FCF70CF8364F02460B46D7E93B
:1047D0000001FBF729FDC7E90001FFF741FC364B5B
:1047E000D3ED007A70EE277A17EE900AFBF77AFE87
:1047F00022462B46FBF7F4FF2B4C02460B46D4E92E
:104800000001FBF711FDC4E900011420FCF716FCC0
:104810000136274BDB699E42A3D3214BD3E900012C
:10482000FCF74EF9214B18601E4BD3E90001FCF751
:1048300047F9204B18601C4BD3E90001FCF740F905
:104840001D4B18601D4B1878FFF7DEFD00281EDB9E
:104850001B4B1878FFF724FE00281CDB194B187837
:10486000FFF704FF002802DB0120BDE8F8836FF0AA
:104870000500BDE8F8834FF0FF30BDE8F8836FF026
:104880000100BDE8F8836FF00200BDE8F8836FF027
:104890000300BDE8F8836FF00400BDE8F88300BFB3
:1048A00058060020601100204811002054110020FB
:1048B00008000020940E002018100020900E002008
:1048C000941100208011002008B5064A01217520AE
:1048D000FFF7E4FB002802DB024B187808BD4FF01D
:1048E000FF3008BD940B002008B5064A01210020C6
:1048F000FFF752FE002802DB024B187808BD4FF08C
:10490000FF3008BD940B002010B501216B20FFF78C
:104910004BFD0028C0F2FB8020216A20FFF744FDF8
:104920000028C0F2F7800D212420FFF73DFD00286C
:10493000C0F2F38000210A20FFF75CFE80216B208B
:10494000FFF732FD0120FCF779FB01210B20FFF777
:1049500051FE01216B20FFF727FD0028C0F2E08007
:10496000FFF7B2FF712804D0FFF7AEFF732840F0C5
:10497000DA8000216C20FFF717FD0028C0F2D680F6
:1049800018211C20FFF710FD0028C0F2D2807C4ABD
:104990007C4B1A6003227C4B1A7018211B20FFF7F6
:1049A00003FD0028C0F2C880784A794B1A600322C0
:1049B000784B1A7001211D20FFF7F6FC0028C0F289
:1049C000BE8001211A20FFF7EFFC0028C0F2BA8058
:1049D0000021714B19701920FFF7E6FC0028C0F286
:1049E000B48000226D4B1A7020216A20FFF7DCFC96
:1049F0000028C0F2AD800D212420FFF7D5FC00284F
:104A0000C0F2A980FFF770FF482840F0A78000217E
:104A10000A20FFF7EFFD0028C0F2A3806420FCF716
:104A20000DFB0F210A20FFF7E5FD0028C0F29C8056
:104A30006420FCF703FB5A4C224603211020FFF7A9
:104A4000ABFD237807EE103AB8EE477ADFED554A12
:104A500037EE647A9FED545A27EE057AF7EE005A46
:104A600037EE257A9FED516A27EE067ADFED506A20
:104A7000C7EE267A4F4BC3ED007A637807EE103A03
:104A8000B8EE477A37EE647A27EE057A37EE257A64
:104A900027EE067AC7EE267A474BC3ED007AA37855
:104AA00007EE903AF8EE677A77EEE47A67EE857A69
:104AB00077EEA57A67EE867A87EEA67A3F4B83ED8E
:104AC000007A00210A20FFF795FD00284FDB6420C3
:104AD000FCF7B4FA16210A20FFF78CFD002849DB09
:104AE0006420FCF7ABFA01216B20FFF75DFC002886
:104AF00043DB224607210320FFF74EFDFFF710FEA0
:104B0000002801DB012010BD6FF0130010BD4FF035
:104B1000FF3010BD6FF0010010BD6FF0020010BD3E
:104B20006FF0030010BD6FF0040010BD6FF00500C2
:104B300010BD6FF0060010BD6FF0070010BD6FF0E4
:104B4000080010BD6FF0090010BD6FF00A0010BD25
:104B50006FF00B0010BD6FF00C0010BD6FF00D007A
:104B600010BD6FF00E0010BD6FF00F0010BD6FF0A4
:104B7000100010BD6FF0110010BD6FF0120010BDDD
:104B800016EA9C3B841100206C110020E3A08B3AB4
:104B9000A4110020900E002094110020801100200C
:104BA000940B0020000000430000803B00809945EA
:104BB00000F0FF46840B0020501100206806002002
:104BC00000B585B02448254B03604FF48033436023
:104BD000002383600122026183610362C362204972
:104BE0008162C3600323C36102634261FCF7D2FAAE
:104BF000F0B90023009301220192029369461648FE
:104C0000FCF780FCC8B9082300930223019369468E
:104C10001148FCF777FCA8B90923009303230193FB
:104C200069460D48FCF76EFC88B905B05DF804FBD9
:104C30004A210C4800F010FBDBE75421094800F042
:104C40000BFBE0E75D21074800F006FBE4E7662187
:104C5000044800F001FBE8E70813002000200140B1
:104C60000100000F208300080268264B9A4200D002
:104C7000704770B586B004460025009503F58C3367
:104C80005A6C42F480725A645B6C03F48073009334
:104C9000009B0123019303260296039501A91A485C
:104CA000FCF7A8FF01960296039501A91748FCF7A7
:104CB000A1FF1748174B036045608560C5604FF43E
:104CC000806303614FF4805343614FF480438361F9
:104CD0004FF48073C36105624562FCF7E5FD60B97E
:104CE0000B4BA3639C63002211461220FCF7E8FCE7
:104CF0001220FCF717FD06B070BD9421064800F0A5
:104D0000ABFAEDE700200140000002400004024041
:104D100050130020106402402083000810B582B0B8
:104D2000002400942A4B1A6B42F480021A631A6B17
:104D300002F480020092009A01941A6B42F400126D
:104D40001A631B6B03F400130193019B2246214657
:104D50000B20FCF7B5FC0B20FCF7E4FC22462146B7
:104D60001020FCF7ADFC1020FCF7DCFC22462146AD
:104D70001120FCF7A5FC1120FCF7D4FC22462146AB
:104D80002F20FCF79DFC2F20FCF7CCFC224621466F
:104D90003820FCF795FC3820FCF7C4FC224621465D
:104DA0003920FCF78DFC3920FCF7BCFC224621465B
:104DB0003A20FCF785FC3A20FCF7B4FC2246214659
:104DC0004620FCF77DFC4620FCF7ACFC02B010BD91
:104DD00000380240F0B58DB000240194464B1A6BA8
:104DE00042F010021A631A6B02F010020192019A4B
:104DF00002941A6B42F004021A631A6B02F0040266
:104E00000292029A03941A6B42F080021A631A6BA0
:104E100002F080020392039A04941A6B42F001029A
:104E20001A631A6B02F001020492049A05941A6B39
:104E300042F002021A631A6B02F002020592059A0E
:104E400006941A6B42F008021A631B6B03F0080306
:104E50000693069B294D22464FF480412846FCF7D5
:104E6000BBFF4FF400530793254B0893099407A900
:104E70002846FCF7BFFE4FF48043079301270897AD
:104E800009940A9407A92846FCF7B4FE4FF400439E
:104E900007931C4E0896099407A92846FCF7AAFE1A
:104EA000079703250895099407A91748FCF7A2FE60
:104EB00007950895099407A91448FCF79BFE4FF441
:104EC0008063079308940994114D07A92846FCF7BD
:104ED00091FE4FF40C6307930896099407A928469E
:104EE000FCF788FE224621462820FCF7E9FB282013
:104EF000FCF718FC0DB0F0BD00380240000802407D
:104F000000001110000021100000024000040240C7
:104F1000000C024008B50C480C4B03600C4B43607E
:104F200000238360C3604FF4804202614361836168
:104F3000C3610362FDF780F900B908BD4621054849
:104F400000F08AF9F9E700BF101400200054004077
:104F5000A08601003083000808B50C480C4B0360A4
:104F60000C4B436000238360C3604FF480420261B6
:104F700043618361C3610362FDF75EF900B908BD57
:104F80005921054800F068F9F9E700BF64140020D2
:104F900000580040A08601003083000810B588B09A
:104FA00003683C4A934204D03B4A934256D008B02F
:104FB00010BD04464FF4407303931223049301235E
:104FC0000593032306930423079303A93348FCF7AF
:104FD00011FE00230193324A116C41F40011116457
:104FE000126C02F400120192019A2E482E4A0260BD
:104FF0004FF0007242608360C3604FF480620261D0
:1050000043618361C36103624362FCF74DFCD8B91D
:10501000244BA3639C632548254B03604FF000732A
:105020004360402383600023C3604FF480620261C9
:1050300043618361C36103624362FCF735FC40B99D
:105040001A4B63639C63B2E784211A4800F004F9A9
:10505000DEE79621174800F0FFF8F1E74FF44063D0
:10506000039312230493012305930323069304233C
:10507000079303A90948FCF7BDFD00230293084BE1
:105080001A6C42F480021A641B6C03F480030293CE
:10509000029B8CE70054004000580040000402408E
:1050A00000380240B814002088600240B01300208D
:1050B000A06002403083000808B53222024903484C
:1050C000FEF71AFE08BD00BF70150020741D0020F9
:1050D00070477047094B1B6813F0100F0DD082B05A
:1050E00000230193064B1B681A6801925B680193C9
:1050F000019B0122034B1A7002B07047001001405F
:10510000341D002024020020094B1B6813F0100FEF
:105110000DD082B000230193064B1B681A680192E0
:105120005B680193019B0122034B1A7002B0704728
:1051300000500040941C002024020020094B1B68F2
:1051400013F0100F0DD082B000230193064B1B68A3
:105150001A6801925B680193019B0122034B5A700C
:1051600002B0704700140140741D0020240200208A
:105170000268044B9A4200D070470122024BDA7059
:10518000FAE700BF0054004024020020B0F5004FB1
:1051900000D070470122014B1A71FAE72402002067
:1051A00038B505460C460846FBF762FE4FF4FA6335
:1051B00082B221462846FEF72EFD38BD08B50268AA
:1051C000044B9A4200D008BD032203490348FCF770
:1051D0000BF8F8E700200140E81900200813002030
:1051E00008B5054900230B604B608B600322034820
:1051F000FBF7FAFF08BD00BFE819002008130020E4
:1052000008B50248FEF769F808BD00BF581B00202A
:1052100070B586B0202301930126029600240394E2
:1052200004940C4D01A92846FCF7E4FC40230193AB
:1052300002960394049401A92846FCF7DBFC802322
:10524000019302960394049401A92846FCF7D2FC2A
:1052500006B070BD00040240FEE7000000B595B046
:10526000002101912F4B1A6C42F080521A641B6C82
:1052700003F080530193019B02912B4B1A6842F477
:1052800040421A601B6803F440430293029B0123CF
:1052900008934FF48033099302230E934FF4800355
:1052A0000F931A2310934FF4B473119304231293A2
:1052B000139308A8FDF710FC20BBFDF7CDFB30BB16
:1052C0000F23039302210491002305934FF480528E
:1052D0000692079303A8FDF71DFEE8B9FDF7C6FE89
:1052E000124BA3FB0030400AFCF728FA0020FCF721
:1052F00049FA002211464FF0FF30FCF7E1F915B0F2
:105300005DF804FB40F2A3110948FFF7A5FF4FF435
:10531000D5710748FFF7A0FF4FF4DC710448FFF791
:105320009BFF00BF0038024000700040D34D621068
:1053300040830008000000002DE9F04F2DED048BA4
:1053400095B0FBF74FFEFFF789FFFFF743FDFFF72F
:10535000E5FC00F037FD00F053FDFFF7DBFDFFF744
:10536000FBFD00F011FD00F055FC00F0ABFC00F07F
:1053700085F900F063FDFFF723FC00F0B5FB00F0BA
:10538000EDFA00F057F9FFF72BFFFFF795FEFFF757
:1053900037FFFFF73DFF984D2A68D36843F01003AD
:1053A000D360964B1A68D36843F01003D36032225F
:1053B00093492846FEF7A0FC924C2068FBF770F852
:1053C00083A3D3E90023FBF7E1F883A3D3E9002308
:1053D000FBF7DCF800228C4BFAF726FF80A3D3E919
:1053E0000023FBF7D3F8FBF76BFB80466068FBF705
:1053F00057F877A3D3E90023FBF7C8F876A3D3E9DE
:105400000023FBF7C3F800227F4BFAF70DFF76A3CA
:10541000D3E90023FBF7BAF8FBF752FB0746A06875
:10542000FBF73EF86AA3D3E90023FBF7AFF80022AD
:10543000764BFBF7D5F96EA3D3E90023FBF7D0F940
:10544000FBF73EFB06464046FBF74CF8704C024625
:105450000B467049204601F04FFB21462846FFF7D6
:105460009FFE3846FBF73EF802460B466A49204647
:1054700001F042FB21462846FFF792FE3046FBF73B
:1054800031F802460B466549204601F035FB2146BE
:105490002846FFF785FE0123019313AA0092D0222C
:1054A000EC215F48FDF78EF900225E4BDA705D4B10
:1054B000DB78002BFBD0564C9DF84C205A492046F7
:1054C00001F01AFB4C4D21462846FFF769FEFFF715
:1054D000FBF9C2B25549204601F00EFB2146284691
:1054E000FFF75EFEFFF710FAFEF7F4FDFEF7F2FDA0
:1054F000FEF798FD10EE104AFEF79AFD10EE105AD6
:10550000FEF79CFD10EE108AFEF79EFD10EE109A3D
:10551000FEF7A0FD10EE10AAFEF7A2FD10EE10BAE5
:10552000FEF7A4FDB0EE408AFEF7A6FDF0EE408A3D
:10553000FEF7A8FDB0EE409AFEF7AAFDF0EE409A05
:105540002046FAF7CFFF06460F46314C19EE900A77
:10555000FAF7C8FFCDE9100119EE100AFAF7C2FFF9
:10556000CDE90E0118EE900AFAF7BCFFCDE90C0167
:1055700018EE100AFAF7B6FFCDE90A015846FAF715
:10558000B1FFCDE908015046FAF7ACFFCDE90601BD
:105590004846FAF7A7FFCDE904014046FAF7A2FF13
:1055A000CDE902012846FAF79DFFCDE90001324618
:1055B0003B461F49204601F09FFA21460E48FFF75F
:1055C000EFFD6420FBF73AFD90E700BFAFF30080EA
:1055D000011D41857E01483F645DDC460378D73F6D
:1055E00070CE88D2DE6016405917B7D100DEFD3F7D
:1055F0007B14AE47E17A843F941C0020741D002088
:10560000B4190020E81900200000F83F00006940AC
:10561000A4150020508300086C83000888830008CC
:105620001014002024020020A4830008B483000882
:10563000C483000808B50E480E4B03604FF4827314
:10564000436000238360C360036143614FF48022A1
:105650008261C3610362436283620A23C362FDF70E
:105660002BFD00B908BD46210348FFF7F5FDF9E71A
:10567000F4190020003800401C84000808B50E48CA
:105680000E4B03604FF48273436000238360C3605A
:10569000036143614FF480228261C361036243620C
:1056A00083620A23C362FDF707FD00B908BD5C21D0
:1056B0000348FFF7D1FDF9E74C1A00200034014000
:1056C0001C84000800B589B003681F4A934205D0C6
:1056D0001E4A93421DD009B05DF804FB00210191E0
:1056E0001B4B1A6C42F480421A641B6C03F4804317
:1056F0000193019B4FF4704303930223049305919C
:10570000032306930523079303A91248FCF772FAB3
:10571000E1E7002102910E4B5A6C42F400525A64A8
:105720005B6C03F400530293029B742303930223E4
:1057300004930591032306930523079303A90648C1
:10574000FCF758FAC7E700BF0038004000340140BA
:1057500000380240000402400010024010B582B040
:1057600000240094214B5A6C42F480425A645A6CD3
:1057700002F480420092009A01941A6C42F0805226
:105780001A641B6C03F080530193019B0320FBF709
:1057900085FF224621466FF00B00FBF791FF224662
:1057A00021466FF00A00FBF78BFF224621466FF07F
:1057B0000900FBF785FF224621466FF00400FBF746
:1057C0007FFF224621466FF00300FBF779FF224658
:1057D00021466FF00100FBF773FF224621464FF090
:1057E000FF30FBF76DFF02B010BD00BF0038024074
:1057F0007047FEE7FEE7FEE7FEE770477047704739
:1058000008B5FBF709FCFBF7CEFF08BD08B5024859
:10581000FCF700F908BD00BFB41D002008B5024820
:10582000FCF7F8F808BD00BFB814002008B502481E
:10583000FCF7F0F808BD00BFB013002008B502481F
:10584000FBF7ADFD08BD00BF0813002008B52520FB
:10585000FBF78AFFFFF73EFC0148FEF74BFB08BD54
:10586000341D002008B50248FEF744FB08BD00BF08
:10587000F41B002008B54FF40060FCF7B3FA4FF4B6
:105880000050FCF7AFFA4FF40040FCF7ABFA08BD4C
:1058900008B50248FCF7BEF808BD00BF141E002082
:1058A00008B53520FBF760FFFFF72EFC0148FEF737
:1058B00021FB08BD941C002008B50248FCF7AAF89B
:1058C00008BD00BF5013002008B50248FCF7A2F83D
:1058D00008BD00BF941B002008B50248FCF79AF8E9
:1058E00008BD00BFD41C002008B50248FCF792F8A0
:1058F00008BD00BF341C002008B54720FBF734FF6B
:10590000FFF71CFC0148FEF7F5FA08BD741D0020E6
:105910000F49D1F8883043F47003C1F888300D4B3B
:105920001A6842F001021A60002098601A6822F09A
:10593000847222F480321A60074A5A601A6822F48C
:1059400080221A60D8604FF000638B60704700BF00
:1059500000ED00E0003802401030002400B587B0B0
:1059600018484FF08043036059234360002383604D
:105970004FF0FF32C2600361FDF7D0FD98B906A970
:105980004FF4805341F8103D0E48FDF7B4FC78B950
:1059900000230093019369460A48FDF797FE60B91A
:1059A00007B05DF804FB90210748FFF755FCE6E7D8
:1059B00096210548FFF750FCEAE79D210248FFF7D2
:1059C0004BFCEDE7581B00202C84000884B00368D2
:1059D000204A93420AD0B3F1804F14D01E4A93421A
:1059E0001ED01E4A934228D004B070470023009373
:1059F0001B4B5A6C42F001025A645B6C03F00103CA
:105A00000093009BF0E700230193154B1A6C42F0C2
:105A100001021A641B6C03F001030193019BE3E78D
:105A2000002302930E4B1A6C42F002021A641B6CA4
:105A300003F002030293029BD6E700230393084B73
:105A40001A6C42F004021A641B6C03F00403039303
:105A5000039BC9E70000014000040040000800402B
:105A60000038024000B587B003681A4A934208D054
:105A7000194A934214D0194A93421ED007B05DF8D8
:105A800004FB4FF4D44301930223029300230393B6
:105A900004930123059301A91148FCF7ABF8EDE746
:105AA0002023019302230293002203920492059380
:105AB00001A90C48FCF79EF8E0E7C02301930223FC
:105AC0000293002203920492059301A90548FCF772
:105AD00091F8D3E7000001400004004000080040B6
