:020000040800F2
:1000000000000320B1550008454C0008474C00088B
:10001000494C00084B4C00084D4C00080000000003
:100020000000000000000000000000004F4C00082D
:10003000514C000800000000534C0008554C0008CB
:100040000156000801560008015600080156000834
:100050000156000801560008015600080156000824
:10006000015600080156000801560008614C0008BE
:100070000156000801560008015600080156000804
:10008000714C0008814C0008914C00080156000892
:1000900001560008015600080156000801560008E4
:1000A00001560008015600080156000801560008D4
:1000B00001560008015600080156000801560008C4
:1000C00001560008015600080156000801560008B4
:1000D00001560008A14C000801560008B94C000860
:1000E000C94C0008015600080156000801560008D6
:1000F000015600080156000801560008E54C0008AA
:100100000156000801560008015600080156000873
:1001100001560008F54C0008015600080156000879
:100120000D4D00081D4D00082D4D0008015600081A
:100130000156000801560008015600080156000843
:100140000156000801560008015600080156000833
:1001500001560008015600083D4D00084D4D0008AD
:100160000156000801560008015600080156000813
:100170000156000801560008015600080000000062
:1001800001560008015600080156000801560008F3
:1001900001560008015600080156000801560008E3
:0C01A00001560008015600080156000836
:1001B00010B5054C237833B9044B13B10448AFF3A1
:1001C00000800123237010BDDC010020000000002E
:1001D000747800080C4B43B10C480D4910B5AFF3CF
:1001E00000800C48036823B910BD0A48036833B97E
:1001F0007047094B002BF7D0BDE810401847064B5D
:10020000002BF5D0184700BF0000000074780008EC
:10021000E0010020DC0100200000000081F000412E
:1002200002E000BF83F0004330B54FEA41044FEADB
:10023000430594EA050F08BF90EA020F1FBF54EA76
:10024000000C55EA020C7FEA645C7FEA655C00F012
:10025000E2804FEA5454D4EB5555B8BF6D420CDDE3
:100260002C4480EA020281EA030382EA000083EA66
:10027000010180EA020281EA0303362D88BF30BD06
:1002800011F0004F4FEA01314FF4801C4CEA11315C
:1002900002D0404261EB410113F0004F4FEA0333BB
:1002A0004CEA133302D0524263EB430394EA050F46
:1002B00000F0A780A4F10104D5F1200E0DDB02FAB5
:1002C0000EFC22FA05F2801841F1000103FA0EF249
:1002D000801843FA05F359410EE0A5F120050EF10F
:1002E000200E012A03FA0EFC28BF4CF0020C43FA40
:1002F00005F3C01851EBE37101F0004507D54FF04D
:10030000000EDCF1000C7EEB00006EEB0101B1F59C
:10031000801F1BD3B1F5001F0CD349085FEA3000E2
:100320004FEA3C0C04F101044FEA445212F5800FED
:1003300080F09A80BCF1004F08BF5FEA500C50F18A
:10034000000041EB045141EA050130BD5FEA4C0C6D
:10035000404141EB010111F4801FA4F10104E9D1F6
:1003600091F0000F04BF01460020B1FA81F308BFED
:100370002033A3F10B03B3F120020CDA0C3208DDB9
:1003800002F1140CC2F10C0201FA0CF021FA02F194
:100390000CE002F11402D8BFC2F1200C01FA02F104
:1003A00020FA0CFCDCBF41EA0C019040E41AA2BF29
:1003B00001EB0451294330BD6FEA04041F3C1CDAF1
:1003C0000C340EDC04F11404C4F1200220FA04F011
:1003D00001FA02F340EA030021FA04F345EA0301BB
:1003E00030BDC4F10C04C4F1200220FA02F001FA7D
:1003F00004F340EA0300294630BD21FA04F02946FF
:1004000030BD94F0000F83F4801306BF81F4801197
:100410000134013D4EE77FEA645C18BF7FEA655C0A
:1004200029D094EA050F08BF90EA020F05D054EADC
:10043000000C04BF1946104630BD91EA030F1EBFE1
:100440000021002030BD5FEA545C05D140004941E5
:1004500028BF41F0004130BD14F580043CBF01F5D8
:10046000801130BD01F0004545F0FE4141F47001BE
:100470004FF0000030BD7FEA645C1ABF1946104699
:100480007FEA655C1CBF0B46024650EA013406BF9A
:1004900052EA033591EA030F41F4002130BD00BF59
:1004A00090F0000F04BF0021704730B54FF4806416
:1004B00004F132044FF000054FF0000150E700BF97
:1004C00090F0000F04BF0021704730B54FF48064F6
:1004D00004F1320410F0004548BF40424FF00001E3
:1004E0003EE700BF42004FEAE2014FEA31014FEA26
:1004F00002701FBF12F07F4393F07F4F81F0605175
:10050000704792F0000F14BF93F07F4F704730B5E3
:100510004FF4607401F0004521F0004120E700BF76
:1005200050EA010208BF704730B54FF000050AE0FD
:1005300050EA010208BF704730B511F0004502D5FE
:10054000404261EB41014FF4806404F132045FEA00
:10055000915C3FF4DCAE4FF003025FEADC0C18BFA5
:1005600003325FEADC0C18BF033202EBDC02C2F19B
:10057000200300FA03FC20FA02F001FA03FE40EA2D
:100580000E0021FA02F11444C1E600BF70B54FF02D
:10059000FF0C4CF4E06C1CEA11541DBF1CEA13550F
:1005A00094EA0C0F95EA0C0F00F0DEF82C4481EA77
:1005B000030621EA4C5123EA4C5350EA013518BF97
:1005C00052EA033541F4801143F4801338D0A0FB84
:1005D00002CE4FF00005E1FB02E506F00042E0FB31
:1005E00003E54FF00006E1FB03569CF0000F18BF37
:1005F0004EF0010EA4F1FF04B6F5007F64F54074DF
:1006000004D25FEA4E0E6D4146EB060642EAC62171
:1006100041EA55514FEAC52040EA5E504FEACE2EDE
:10062000B4F1FD0C88BFBCF5E06F1ED8BEF1004FE1
:1006300008BF5FEA500E50F1000041EB045170BD5D
:1006400006F0004646EA010140EA020081EA0301A1
:10065000B4EB5C04C2BFD4EB0C0541EA045170BD9D
:1006600041F480114FF0000E013C00F3AB8014F117
:10067000360FDEBF002001F0004170BDC4F1000460
:10068000203C35DA0C341BDC04F11404C4F12005E1
:1006900000FA05F320FA04F001FA05F240EA02003C
:1006A00001F0004221F0004110EBD37021FA04F672
:1006B00042EB06015EEA430E08BF20EAD37070BD2C
:1006C000C4F10C04C4F1200500FA04F320FA05F08B
:1006D00001FA04F240EA020001F0004110EBD3708D
:1006E00041F100015EEA430E08BF20EAD37070BDFD
:1006F000C4F1200500FA05F24EEA020E20FA04F3D6
:1007000001FA05F243EA020321FA04F001F0004184
:1007100021FA04F220EA020000EBD3705EEA430EF5
:1007200008BF20EAD37070BD94F0000F0FD101F024
:100730000046400041EB010111F4801F08BF013C5D
:10074000F7D041EA060195F0000F18BF704703F09B
:100750000046520043EB030313F4801F08BF013D22
:10076000F7D043EA0603704794EA0C0F0CEA1355DE
:1007700018BF95EA0C0F0CD050EA410618BF52EA98
:100780004306D1D181EA030101F000414FF000009E
:1007900070BD50EA410606BF1046194652EA4306AC
:1007A00019D094EA0C0F02D150EA013613D195EA20
:1007B0000C0F05D152EA03361CBF104619460AD168
:1007C00081EA030101F0004141F0FE4141F4700172
:1007D0004FF0000070BD41F0FE4141F4780170BD62
:1007E00070B54FF0FF0C4CF4E06C1CEA11541DBFC7
:1007F0001CEA135594EA0C0F95EA0C0F00F0A7F8C9
:10080000A4EB050481EA030E52EA03354FEA0131F5
:1008100000F088804FEA03334FF0805545EA131308
:1008200043EA12634FEA022245EA111545EA1065D0
:100830004FEA00260EF000419D4208BF964244F167
:10084000FD0404F5407402D25B084FEA3202B61A86
:1008500065EB03055B084FEA32024FF480104FF45A
:10086000002CB6EB020E75EB030E22BFB61A7546CE
:1008700040EA0C005B084FEA3202B6EB020E75EB61
:10088000030E22BFB61A754640EA5C005B084FEAC9
:100890003202B6EB020E75EB030E22BFB61A754696
:1008A00040EA9C005B084FEA3202B6EB020E75EBA1
:1008B000030E22BFB61A754640EADC0055EA060E62
:1008C00018D04FEA051545EA16754FEA06164FEAA5
:1008D000C30343EA52734FEAC2025FEA1C1CC0D151
:1008E00011F4801F0BD141EA00014FF000004FF0DE
:1008F000004CB6E711F4801F04BF01430020B4F19F
:10090000FD0C88BFBCF5E06F3FF6AFAEB5EB030C56
:1009100004BFB6EB020C5FEA500C50F1000041EB53
:10092000045170BD0EF0004E4EEA113114EB5C0420
:10093000C2BFD4EB0C0541EA045170BD41F48011F3
:100940004FF0000E013C90E645EA060E8DE60CEAFB
:10095000135594EA0C0F08BF95EA0C0F3FF43BAF18
:1009600094EA0C0F0AD150EA01347FF434AF95EACF
:100970000C0F7FF425AF104619462CE795EA0C0FB3
:1009800006D152EA03353FF4FDAE1046194622E780
:1009900050EA410618BF52EA43067FF4C5AE50EA5A
:1009A00041047FF40DAF52EA43057FF4EBAE12E74A
:1009B0004FF0FF3C06E000BF4FF0010C02E000BF2B
:1009C0004FF0010C4DF804CD4FEA410C7FEA6C5C0E
:1009D0004FEA430C18BF7FEA6C5C1BD001B050EAB1
:1009E000410C0CBF52EA430C91EA030F02BF90EA9C
:1009F000020F0020704710F1000F91EA030F58BF5B
:100A0000994208BF90422CBFD8176FEAE37040F0BC
:100A1000010070474FEA410C7FEA6C5C02D150EA5A
:100A2000013C07D14FEA430C7FEA6C5CD6D152EA15
:100A3000033CD3D05DF8040B704700BF84461046DA
:100A400062468C461946634600E000BF01B5FFF7D9
:100A5000B7FF002848BF10F1000F01BD4DF808EDA9
:100A6000FFF7F4FF0CBF012000205DF808FB00BF7A
:100A70004DF808EDFFF7EAFF34BF012000205DF8D4
:100A800008FB00BF4DF808EDFFF7E0FF94BF012021
:100A900000205DF808FB00BF4DF808EDFFF7CEFF22
:100AA00094BF012000205DF808FB00BF4DF808ED61
:100AB000FFF7C4FF34BF012000205DF808FB00BF32
:100AC0004FEA410C7FEA6C5C02D150EA013C0AD14A
:100AD0004FEA430C7FEA6C5C02D152EA033C02D13C
:100AE0004FF0000070474FF0010070474A0011D2EC
:100AF00012F5001211D20DD56FF47873B3EB625278
:100B00000ED44FEAC12343F0004343EA505323FA83
:100B100002F070474FF00000704750EA013002D1F8
:100B20004FF0FF3070474FF0000070474FEA41022E
:100B3000B2F1E04324BFB3F5001CDCF1FE5C0DD93B
:100B400001F0004C4FEAC0024CEA5070B2F1004F85
:100B500040EB830008BF20F00100704711F0804F88
:100B600021D113F13872BCBF01F00040704741F44D
:100B700080114FEA5252C2F11802C2F1200C10FA51
:100B80000CF320FA02F018BF40F001004FEAC12335
:100B90004FEAD32303FA0CFC40EA0C0023FA02F3D9
:100BA0004FEA4303CCE77FEA625307D150EA0133AF
:100BB0001EBF4FF0FE4040F44000704701F000407F
:100BC00040F0FE4040F40000704700BF53B94AB9FE
:100BD000002908BF00281CBF4FF0FF314FF0FF3045
:100BE00000F07AB9ADF1080C6DE904CE00F006F81A
:100BF000DDF804E0DDE9022304B070472DE9F04799
:100C00008C460D460446089E002B51D18A42174659
:100C10006DD9B2FA82FEBEF1000F0BD0CEF1200CDE
:100C200001FA0EF520FA0CFC02FA0EF74CEA050C5C
:100C300000FA0EF44FEA174A250CBCFBFAF81FFA2B
:100C400087F90AFB18CC45EA0C4508FB09F3AB42CF
:100C50000AD9ED1908F1FF3280F02381AB4240F24E
:100C60002081A8F102083D44ED1AA4B2B5FBFAF0C8
:100C70000AFB105544EA054400FB09F9A14509D9CE
:100C8000E41900F1FF3380F00A81A14540F20781A9
:100C900002383C44A4EB090440EA08400021002E3D
:100CA00061D024FA0EF4002334607360BDE8F0874D
:100CB0008B4207D9002E54D0002186E82100084637
:100CC000BDE8F087B3FA83F1002940F08E80AB4293
:100CD00002D3824200F2FA80841A65EB03050120F8
:100CE000AC46002E3FD086E81010BDE8F08712B960
:100CF0000127B7FBF2F7B7FA87FEBEF1000F34D138
:100D0000EB1B3A0C1FFA87FC0121B3FBF2F8250C10
:100D100002FB183345EA03450CFB08F3AB4207D945
:100D2000ED1908F1FF3002D2AB4200F2D1808046CB
:100D3000ED1AA3B2B5FBF2F002FB105543EA0544ED
:100D40000CFB00FCA44507D9E41900F1FF3302D2E3
:100D5000A44500F2B8801846A4EB0C0440EA084011
:100D60009DE731463046BDE8F087CEF1200405FA14
:100D70000EF307FA0EF720FA04F83A0C25FA04F4F9
:100D800048EA0308B4FBF2F14FEA184502FB1144AC
:100D90001FFA87FC45EA044501FB0CF3AB4200FA5D
:100DA0000EF409D9ED1901F1FF3080F08A80AB42D1
:100DB00040F2878002393D44EB1A1FFA88F5B3FBF5
:100DC000F2F002FB103345EA034500FB0CF3AB42A3
:100DD00007D9ED1900F1FF386FD2AB426DD9023857
:100DE0003D44EB1A40EA01418FE7C1F1200722FAA6
:100DF00007F88B4005FA01F448EA030320FA07FEDE
:100E00004FEA134CFD404EEA040EB5FBFCF94FEAE5
:100E10001E440CFB19551FFA83F844EA054509FBEB
:100E200008F4AC4202FA01F200FA01FA08D9ED180E
:100E300009F1FF3043D2AC4241D9A9F102091D4466
:100E40002D1B1FFA8EFEB5FBFCF00CFB10554EEA75
:100E5000054400FB08F8A04507D9E41800F1FF3568
:100E600029D2A04527D902381C4440EA0940A4EB06
:100E70000804A0FB02894C45C6464D4615D312D046
:100E800056B1BAEB0E0364EB050404FA07F7CB4046
:100E90001F43CC40376074600021BDE8F0871846DE
:100EA000F8E69046E0E6C245EAD2B8EB020E69EBFE
:100EB00003050138E4E72846D7E7404691E7814635
:100EC000BEE7014678E702383C4445E7084608E7B4
:100ED000A8F102083D442BE7704700BF034613F812
:100EE000012B002AFBD1181A0138704700000000BE
:100EF00001F0FF01102A2BDB10F0070F08D010F8CB
:100F0000013B013A8B422DD010F0070F42B3F6D1CE
:100F1000F0B441EA012141EA014122F007047FF0E7
:100F200000070023F0E80256083C85EA010586EA3E
:100F3000010685FA47F5A3FA87F586FA47F6A5FA7A
:100F400087F68EB9EED1F0BC01F0FF0102F0070286
:100F500032B110F8013B013A83EA010313B1F8D131
:100F60000020704701387047002D06BF3546033812
:100F7000073815F0010F07D1013015F4807F02BF4B
:100F8000013015F4C03F0130F0BC0138704700BF9C
:100F90004FEA410212F5001215D211D56FF47873A1
:100FA000B3EB625212D94FEAC12343F0004343EA44
:100FB000505311F0004F23FA02F018BF404270471F
:100FC0004FF00000704750EA013005D111F00040A9
:100FD00008BF6FF0004070474FF00000704700BF3F
:100FE00010B504460E4B18784FF47A73B3FBF0F348
:100FF0000C4A1068B0FBF3F000F0AEFB68B90F2CA0
:1010000001D9012010BD002221464FF0FF3000F031
:1010100065FB034B5C60002010BD012010BD00BFCC
:10102000000000200800002008B50B4B1A6842F4AD
:1010300000721A601A6842F480621A601A6842F4F8
:1010400080721A60032000F037FB0020FFF7C8FF12
:1010500003F0AEFD002008BD003C0240034A1168C9
:10106000034B1B780B441360704700BF180200202D
:1010700000000020014B1868704700BF18020020D4
:10108000494B5A6822F440325A605A6841680A4310
:101090005A600268536823F480735360026853688F
:1010A000016943EA012353600268536823F04073E7
:1010B00053600268536881680B4353600268936809
:1010C00023F40063936002689368C1680B439360E4
:1010D000826A364B9A4249D00268936823F0706363
:1010E000936002689368816A0B4393600268936817
:1010F00023F04053936002689368C16A0B43936086
:101100000268936823F00203936002689368816920
:1011100043EA41039360036A002B32D102685368AB
:1011200023F4006353600268D36A23F47003D3622C
:101130000168CB6AC269013A43EA0253CB62026892
:10114000936823F40073936002689368016B43EA29
:10115000412393600268936823F48063936002687C
:101160009368416943EA81239360704702689368FA
:1011700023F0706393600268936823F04053936098
:10118000BEE70268536843F4006353600268536823
:1011900023F46043536001684B68426A013A43EAB2
:1011A00042334B60BFE700BF002301400100000F46
:1011B00030B310B50446036C43B1236C13F0100F29
:1011C0000AD00120002384F83C3010BD436480F82D
:1011D0003C3002F0A1FDF0E7236C23F4885323F0A8
:1011E000020343F0020323642046FFF749FF002077
:1011F0006064236C23F0030343F001032364E1E7FD
:101200000120704730B583B00023019390F83C3043
:10121000012B00F08180012380F83C3003689C683A
:1012200014F0010F13D19C6844F001049C603F4B03
:101230001C683F4BA3FB0434A40C04EB440401944E
:1012400002E0019C013C0194019C002CF9D103684F
:101250009C6814F0010F62D0046C24F4E06424F064
:10126000010444F4807404645B6813F4806F05D057
:10127000036C23F4405343F480530364036C13F46E
:10128000805F36D0436C23F0060343641346044664
:10129000002280F83C20826B2648D063A26B26484F
:1012A0001064A26B2548D06422686FF022001060A1
:1012B0002568686840F0806068602568A86840F428
:1012C0008070A86020680A4600F14C01A06B00F015
:1012D00061FB1B4B5B6813F01F0F0DD123689A68ED
:1012E00012F0405F1DD19A6842F080429A6000205F
:1012F00013E000234364C9E72368124A934201D0F4
:1013000000200AE09A6812F0405F0CD19A6842F01F
:1013100080429A60002000E0022003B030BD00202F
:10132000FBE70020F9E70020F7E700BF08000020F6
:1013300083DE1B4349130008AD130008091500089C
:10134000002301400020014008B5836B1A6C12F0A5
:10135000500F26D11A6C42F400721A641A68916810
:1013600011F0405F19D19969B9B9D16A11F4700FC0
:1013700003D0916811F4806F0FD1516821F02001E2
:1013800051601A6C22F480721A641A6C12F4805F35
:1013900003D11A6C42F001021A64184603F030F8C7
:1013A00008BD9B6BDB6C984708BD704708B5806B28
:1013B000FFF7FBFF08BD7047704738B50446026869
:1013C0001168536811F0020F2FD003F0200363B3AC
:1013D000036C13F0100F03D1036C43F40073036428
:1013E000936813F0405F19D1A369BBB9D36A13F4B2
:1013F000700F03D0936813F4806F0FD1536823F0FC
:1014000020035360236C23F480732364236C13F450
:10141000805F03D1236C43F001032364204602F074
:10142000EFFF23686FF012021A60236819685A6888
:1014300002F0800211F0040F36D0002A34D0226C62
:1014400012F0100F03D1226C42F4005222649A6809
:1014500012F4401F21D19A6B12F4401F03D09A68F6
:1014600012F4806F19D15A6812F4806F15D19A68FE
:1014700012F0405F11D1A2697AB95A6822F0800255
:101480005A60236C23F480532364236C13F4807F0D
:1014900003D1236C43F001032364204600F00AF9D2
:1014A00023686FF00C021A6022681168536803F019
:1014B000400311F0010F04D01BB1136813F0010FAA
:1014C00009D122681168536803F0806311F0200F7E
:1014D00000D063B938BD236C43F4803323642046C5
:1014E000FFF769FF23686FF001021A60E9E7636C98
:1014F00043F0020363646FF0200515602046FFF798
:101500005BFF23681D60E5E708B5806B402303643B
:10151000436C43F004034364FFF74EFF08BD000033
:1015200030B482B00023019390F83C30012B00F0DE
:10153000B580012380F83C300B68092B3ED9056843
:10154000EA689BB203EB43031E3B072404FA03F350
:1015500022EA0303EB600568EA688C680B8803EBFA
:1015600043031E3B04FA03F31343EB604B68062B63
:101570003AD805686A6B03EB8303053B1F2404FA22
:1015800003F322EA03036B6305686A6B4B6803EBA2
:101590008303053B0C8804FA03F313436B6302686F
:1015A0003F4B9A4250D002683D4B9A4255D000239F
:1015B00080F83C30184602B030BC704705682A6994
:1015C0009BB203EB4303072404FA03F322EA030369
:1015D0002B6105682A698C680B8803EB430304FAC6
:1015E00003F313432B61C1E70C2B16D805682A6B54
:1015F00003EB8303233B1F2404FA03F322EA0303D0
:101600002B6305682A6B4B6803EB8303233B0C8831
:1016100004FA03F313432B63C1E70568EA6A03EB9B
:101620008303413B1F2404FA03F322EA0303EB6222
:101630000568EA6A4B6803EB8303413B0C8804FAB4
:1016400003F31343EB62AAE70B68122BABD1154AE5
:10165000536843F480035360A5E70B68124A934232
:1016600001D0112BA3D10F4A536843F400035360F8
:101670000A680D4B9A429AD10C4B1B680C4AA2FB8C
:1016800003239B0C03EB83035A00019202E0019BAE
:10169000013B0193019B002BF9D188E702208AE7E7
:1016A000002001400023014012000010080000202B
:1016B00083DE1B4370470000074AD36823F4E063CE
:1016C0001B041B0C000200F4E060184340F0BF60F4
:1016D00040F40030D060704700ED00E030B4164BAD
:1016E000DB68C3F30223C3F10704042C28BF0424DE
:1016F0001D1D062D17D9033B012505FA04F4013CF5
:101700002140994005FA03F3013B13401943002897
:101710000BDB0901C9B200F1604000F5614080F8BF
:10172000001330BC70470023E6E700F00F0009010A
:10173000C9B2024B1954F4E700ED00E014ED00E0EB
:10174000420900F01F00012303FA00F0014B43F8A7
:101750002200704700E100E00138B0F1807F0AD23A
:10176000064B5860F021064A82F82310002098604A
:1017700007221A6070470120704700BF10E000E0A8
:1017800000ED00E0430900F01F00012202FA00F022
:101790006033024A42F82300704700BF00E100E0D6
:1017A000042805D0054A136823F00403136070472A
:1017B000024A136843F004031360704710E000E02E
:1017C000704708B5FFF7FCFF08BD30B405682C680A
:1017D00024F480242C60046863608368402B05D067
:1017E000036899600368DA6030BC704703689A60E8
:1017F0000368D960F8E700000268D3B2103B0B49D8
:10180000A1FB03131B090A49C95CC165032B06D858
:1018100022F47F7222F003028265806D704722F409
:101820007F7222F0030204328265F6E7ABAAAAAA0D
:1018300090780008836A826992B9012B0AD01BB1A3
:10184000022B01D000207047C36A13F0807F2CD197
:1018500000207047C36AB3F1C07F28D000207047D2
:10186000B2F5005F05D0022B29D9032B15D000203B
:101870007047032B03D8DFE803F01C041C0A002088
:101880007047C36A13F0807F15D100207047C36A88
:10189000B3F1C07F11D000207047C36A13F0807F7E
:1018A00001D00120704700207047012070470120BF
:1018B00070470120704701207047012070470120C8
:1018C0007047000070B50446FFF7D4FB002C5DD0D4
:1018D0000546002384F83430022384F8353022682A
:1018E000136823F00103136023681A6812F0010FD4
:1018F0000AD0FFF7BFFB401B0528F5D920236365FD
:10190000032084F8350070BD1A68214911406268CF
:10191000A0680243E0680243206902436069024311
:10192000A0690243E0690243206A02430A43616AF4
:10193000042916D01A602668756925F00705636AC0
:101940001D43042B12D075612046FFF755FFE26D51
:101950003F239340836000206065012384F8353085
:1019600070BDE16A206B01430A43E3E7A36A1D43AC
:10197000E36A002BE7D02046FFF75CFF0028E2D0A7
:1019800040236365012084F8350070BD012070BDDF
:101990003F8010F038B5856D90F83440012C31D07F
:1019A000012480F8344090F83540E4B2012C04D092
:1019B000002380F83430022038BD0446022084F829
:1019C0003500002060652046FFF7FFFEE26D3F23F3
:1019D0009340AB602268136843F0160313602268DB
:1019E000536943F080035361236C23B12268136869
:1019F00043F0080313602268136843F00103136087
:101A0000002038BD022038BD70B50446866DFFF752
:101A100031FB94F83530DBB2022B06D080236365AE
:101A2000002384F83430012070BD05462268136815
:101A300023F0160313602268536923F08003536177
:101A4000236CE3B12268136823F008031360226853
:101A5000136823F00103136023681B6813F0010F60
:101A600011D0FFF707FB401B0528F5D9202363653C
:101A7000002384F83430032084F8350070BDA36C53
:101A8000002BDFD1E3E7E26D3F239340B3600020FA
:101A900084F83400012384F8353070BD90F8353077
:101AA000DBB2022B03D0802343650120704705235E
:101AB00080F835300268136823F0010313600020BA
:101AC00070470000F0B583B0044600230193724BC9
:101AD0001D68724BA3FB0535AD0A876D3E68C26D6C
:101AE000082393401E4210D003681A6812F0040FB6
:101AF0000BD01A6822F004021A60C26D08239340CA
:101B0000BB60436D43F001034365E26D01239340E5
:101B10001E4209D02268526912F0800F04D0BB60C7
:101B2000636D43F002036365E26D042393401E423C
:101B300009D02268126812F0020F04D0BB60636DF6
:101B400043F004036365E26D102393401E4224D0EA
:101B50002268126812F0080F1FD0BB6023681A6851
:101B600012F4802F0DD01B6813F4002F04D1236CC6
:101B70009BB12046984710E0A36C73B1204698476C
:101B80000BE01A6812F4807F03D11A6822F0080271
:101B90001A60236C0BB120469847E26D20239340D6
:101BA0001E4255D02268126812F0100F50D0BB6050
:101BB00094F83530DBB2052B0ED023681A6812F486
:101BC000802F33D01B6813F4002F2AD1636C002BB5
:101BD0003ED0204698473BE02268136823F0160366
:101BE00013602268536923F080035361236CA3B10F
:101BF0002268136823F008031360E26D3F239340CB
:101C0000BB60002384F83430012384F83530236D21
:101C1000002B3FD0204698473CE0A36C002BE7D137
:101C2000EBE7E36BA3B12046984711E01A6812F482
:101C3000807F09D11A6822F010021A60002384F80C
:101C40003430012384F83530E36B0BB120469847DC
:101C5000636DFBB1636D13F0010F17D0052384F89A
:101C600035302268136823F001031360019B0133B0
:101C700001939D4204D323681B6813F0010FF5D133
:101C8000002384F83430012384F83530E36C0BB141
:101C90002046984703B0F0BD08000020B5814E1BD8
:101CA000406D7047F0B583B000244BE04FEAD40E8E
:101CB0000EF1080E50F82E2004F00706B6000F278C
:101CC000B74022EA07020F6907FA06F6324340F8E6
:101CD0002E2046E0092600E0002606FA0EF63243E2
:101CE0000233644E46F82320634B1A68EB4302EA42
:101CF00003064F6817F4803F01D045EA02065E4AAA
:101D00001660526803EA02064F6817F4003F01D0DC
:101D100045EA0206584A5660926803EA02064F688E
:101D200017F4801F01D045EA0206534A9660D26834
:101D300013404E6816F4001F01D045EA02034E4AD4
:101D4000D36001340F2C00F292800123A3400A6873
:101D500003EA0205AB42F4D14A68022AA6D0122A4D
:101D6000A4D006684FEA440E032202FA0EF2D243D0
:101D700016404F6807F0030707FA0EF73E43066068
:101D80004E68771E012F03D9112E01D0122E0FD1CC
:101D900086681640CF6807FA0EF73E4386604668AD
:101DA00026EA03034E68C6F30016A6403343436099
:101DB000C3681A408B6803FA0EF31A43C2604B687B
:101DC00013F0805FBDD0002301932C4B5A6C42F47A
:101DD00080425A645B6C03F480430193019BA30827
:101DE0009E1C244A52F8262004F003064FEA860E71
:101DF0000F2606FA0EF622EA0602214FB8423FF4F9
:101E00006BAF204EB04222D006F58066B04220D0A3
:101E100006F58066B0421ED006F58066B0421CD042
:101E200006F58066B0421AD006F58066B04218D03A
:101E300006F58066B04216D006F58066B04214D032
:101E400006F58066B0423FF445AF0A2645E7012615
:101E500043E7022641E703263FE704263DE7052640
:101E60003BE7062639E7072637E7082635E703B0BC
:101E7000F0BD00BF00380140003C01400038024086
:101E8000000002400004024012B909048161704759
:101E90008161704708B5054B5B69034200D108BDFD
:101EA000024B586102F0F8F9F9E700BF003C01402D
:101EB00003685A6912F4806F0DD06FF480625A6122
:101EC0000423036400230363202280F83D2080F86C
:101ED0003C300120704700207047F8B506460C469C
:101EE00017461D461EE02DB1FFF7C4F8069BC01A29
:101EF000854217D200233363202286F83D2086F8DE
:101F00003E3086F83C300320F8BD33685B6924EA34
:101F100003039BB2B3FA83F35B09BB420FD1B5F164
:101F2000FF3FE0D1C4F30743012BEED033689B6938
:101F300024EA03039BB2B3FA83F35B09EDE70020C5
:101F4000F8BDF8B504460D4616461F4632E01A683D
:101F500042F400721A6023686FF480625A610423AD
:101F6000236400232363202284F83D2084F83C303E
:101F70000120F8BD26B1FFF77DF8C01B864219D2BB
:101F800000232363202284F83D2084F83C30032082
:101F9000F8BD23685B6925EA03039BB2003318BFD1
:101FA0000123A3B123685A6912F4806FCFD1B6F12F
:101FB000FF3FDFD1C5F30743012BEAD023689B69BC
:101FC00025EA03039BB2003318BF0123E9E7002091
:101FD000F8BD70B504460D46164623685B6913F0DC
:101FE000800F19D12046FFF763FFB8B9B5F1FF3F65
:101FF000F3D025B1FFF73EF8801B8542EDD2236C6C
:1020000043F02003236400232363202284F83D202F
:1020100084F83C30032070BD002070BD012070BDED
:102020002DE9F04184B005460E46174698460B9CB4
:102030000268136843F4806313600268136843F412
:102040008073136000940A9B00224FF00111FFF788
:1020500044FF20B10323184604B0BDE8F0812B688B
:10206000F6B206F0FE021A6123460A9A3D49284656
:10207000FFF767FF30B12B6C042B01D00323EAE795
:102080000123E8E7002303932B685A6903929B69B5
:102090000393039B22460A992846FFF79AFF58B1FB
:1020A0002B6C042B01D00323D5E72A68136843F473
:1020B000007313600123CEE7B8F1010F0DD02B6838
:1020C0003A0A1A6122460A992846FFF782FFC8B1E8
:1020D0002B6C042B0FD00323BDE72B68FFB21F61CD
:1020E00022460A992846FFF774FFB0B12B6C042BE7
:1020F0000CD00323AFE72A68136843F4007313601E
:102100000123A8E72B68FFB21F61E9E72A6813687B
:1021100043F40073136001239DE72A68136843F4B6
:102120008073136000940A9B00224FF0011128462F
:10213000FFF7D3FE08B103238DE72B6846F00106B5
:102140001E6123460A9A07492846FFF7FAFE03460E
:10215000002880D02B6C042B01D003237BE70123C4
:1021600079E700BF02000100002800F0828038B546
:10217000044690F83D30002B41D0242384F83D30B4
:102180002268136823F00103136000F0D5FC3A4B7A
:10219000A3FB00239B0C2268536021686568374AC3
:1021A000954231D801330B6221686368334A934208
:1021B00034D85B00B0FBF3F0C0F30B03032B00D863
:1021C0000420C8612268E369216A0B431360226816
:1021D0002369E1680B43936022686369A1690B433B
:1021E000D3602268136843F0010313600020206469
:1021F000202384F83D30206384F83E0038BD80F809
:102200003C3001F023FFB8E74FF4967202FB03F372
:102210001B4AA2FB03239B090133C4E7A5688DB9C0
:1022200003EB4302B0FBF2F2C2F30B02B2FA82F20A
:102230005209E2B995B903EB4303B0FBF3F040F464
:102240000040BEE703EB830202EB8202B0FBF2F236
:10225000C2F30B02B2FA82F25209EAE703EB8303FC
:1022600003EB8303B0FBF3F040F44040A9E7012007
:10227000A7E70120704700BF83DE1B43A086010053
:10228000D34D62102DE9F04387B004460E46174641
:102290009846BDF83C5000230593FEF7EBFE94F8FA
:1022A0003D30DBB2202B04D00223184607B0BDE836
:1022B000F0838146604B1B68DB08604AA2FB032366
:1022C0001B0A03EB830303EB83030593059B5A1E51
:1022D0000592002B55D023689A6912F0020FF5D1B0
:1022E00094F83C20012A00F0A580012284F83C20CB
:1022F0001A6812F0010F03D11A6842F001021A6045
:102300002268136823F400631360222384F83D30AD
:10231000402384F83E30002323640E9B636265856E
:10232000474BE362638D9BB22385002B57D0A36B91
:10233000444ADA63A36B444ADA64A26B0023136451
:10234000A26B5364A26B9364A26B13652168238D07
:10235000626A1031A06BFFF71DFBCDF804902323B8
:10236000009343463A4631462046FFF759FE03465E
:10237000A0B1236C042B0CD0002384F83C30032341
:1023800093E72363202284F83D2084F83C30032324
:102390008BE7002384F83C30012386E7012D18D019
:1023A00021684A6842F480524A6000210391226801
:1023B0005069039090690390039884F83C10516829
:1023C00041F48071516021684A6842F400624A60B9
:1023D0006BE721680A6822F480620A60E5E7CDF8BD
:1023E00004902323009343463A4631462046FFF7A4
:1023F00017FE034660B1236C042B04D0002384F83D
:102400003C30032351E7002384F83C3001234CE7A0
:102410000020049022685169049191690491049903
:10242000116841F400711160202284F83D2084F885
:102430003C003AE7022338E70800002089B5F81489
:102440000000FFFF852400085124000870477047F2
:1024500010B5846BFFF724FC022812D022681368A1
:1024600023F48063136000236385202284F83D20D9
:1024700084F83E30236C43F0100323642046FFF7BA
:10248000E6FF10BD08B5806B90F83D30DBB290F8E8
:102490003E20212B2AD0D2B2222B25D002681368ED
:1024A00023F4806313600268136843F400731360BD
:1024B0000268536823F4805353600268536823F41E
:1024C0000063536000234385036CE3B9202380F845
:1024D0003D3090F83E30DBB2402B17D0002380F81F
:1024E0003E30FFF7B3FF08BD202AD7D102685368FA
:1024F00023F400635360002343850268536843F468
:102500004073536008BDFFF7A2FF08BD002380F8A9
:102510003E3001F0B3FE08BD10B582B00023019338
:10252000194B1A6C42F080521A641B6C03F08053F2
:102530000193019B0122154B1A60FEF79BFD044697
:10254000134B5B6813F4803F08D1FEF793FD001B2B
:10255000B0F57A7FF4D9032002B010BD01220D4BF3
:102560001A60FEF787FD0446094B5B6813F4003FD1
:1025700007D1FEF77FFD001BB0F57A7FF4D9032069
:10258000EAE70020E8E700BF0038024040000E42C2
:102590000070004044000E42002800F0BB8170B57E
:1025A00082B00446036813F0010F3BD0A74B9B6831
:1025B00003F00C03042B2CD0A44B9B6803F00C03FA
:1025C000082B21D06368B3F5803F4FD0B3F5A02F1F
:1025D00052D09E4B1A6822F480321A601A6822F494
:1025E00080221A606368002B50D0FEF743FD054639
:1025F000964B1B6813F4003F14D1FEF73BFD401BC4
:102600006428F5D903208AE1904B5B6813F4800FAE
:10261000D8D08E4B1B6813F4003F03D06368002BA7
:1026200000F07A81236813F0020F55D0874B9B6826
:1026300013F00C0F3ED0854B9B6803F00C03082B66
:1026400033D0E368002B68D00122814B1A60FEF77B
:1026500011FD05467D4B1B6813F0020F54D1FEF7A8
:1026600009FD401B0228F5D9032058E1774A136879
:1026700043F480331360B5E7744B1A6842F4802248
:102680001A601A6842F480321A60ABE7FEF7F2FC77
:1026900005466E4B1B6813F4003FC3D0FEF7EAFCFF
:1026A000401B6428F5D9032039E1684B5B6813F4BB
:1026B000800FC6D1654B1B6813F0020F04D0E3688E
:1026C000012B01D001202AE1604A136823F0F803AE
:1026D000216943EAC1031360236813F0080F40D057
:1026E000636963B301225B4B1A60FEF7C3FC0546C6
:1026F000564B5B6F13F0020F33D1FEF7BBFC401B50
:102700000228F5D903200AE1504A136823F0F803A0
:10271000216943EAC1031360DEE700224C4B1A60D3
:10272000FEF7A8FC0546494B1B6813F0020FD3D0F7
:10273000FEF7A0FC401B0228F5D90320EFE00022A1
:10274000444B1A60FEF796FC0546404B5B6F13F056
:10275000020F06D0FEF78EFC401B0228F5D903209D
:10276000DDE0236813F0040F79D0384B1B6C13F0B5
:10277000805F33D100230193344B1A6C42F08052B6
:102780001A641B6C03F080530193019B0125324BAB
:102790001B6813F4807F23D0A368012B34D0052B52
:1027A00038D02A4B1A6F22F001021A671A6F22F0F2
:1027B00004021A67A368002B36D0FEF75BFC0646BE
:1027C000224B1B6F13F0020F48D1FEF753FC801B06
:1027D00041F288339842F3D90320A0E00025D6E7E0
:1027E0001D4A136843F480731360FEF743FC0646EA
:1027F000194B1B6813F4807FCED1FEF73BFC801B86
:102800000228F5D903208AE0104A136F43F0010330
:102810001367CFE70D4B1A6F42F004021A671A6F65
:1028200042F001021A67C5E7FEF724FC0646074B93
:102830001B6F13F0020F11D0FEF71CFC801B41F23E
:1028400088339842F3D9032069E000BF0038024082
:1028500000004742800E474200700040E5B9A3697E
:10286000002B5BD0304A926802F00C02082A58D044
:10287000022B17D000222D4B1A60FEF7FBFB0446FB
:10288000294B1B6813F0007F42D0FEF7F3FB001BBF
:102890000228F5D9032042E0234A136C23F0805329
:1028A0001364DCE70022214B1A60FEF7E3FB0546C8
:1028B0001D4B1B6813F0007F06D0FEF7DBFB401BAF
:1028C0000228F5D903202AE0E369226A1343626AE9
:1028D00043EA8213A26A5208013A43EA0243E26AD7
:1028E00043EA0263104A53600122104B1A60FEF75C
:1028F000C1FB04460C4B1B6813F0007F06D1FEF7AA
:10290000B9FB001B0228F5D9032008E0002006E0EF
:10291000002004E001207047012000E0002002B008
:1029200070BD0120FBE700BF003802406000474255
:10293000F8B5254B9B6803F00C03042B41D0082B02
:1029400001D02248F8BD204B5A6802F03F025B6874
:1029500013F4800F12D01C4B5968C1F38811002367
:102960001B48A1FB0001FEF731F9174B5B68C3F36D
:10297000014301335B00B0FBF3F0F8BD124B5B6821
:10298000C3F388131E4600275C010025E41A65EB9B
:102990000705A90141EA9461A001001B61EB050153
:1029A000CB0043EA5073C400A01943EB07018B022C
:1029B00043EA90538402204619460023FEF706F9A5
:1029C000D3E70348F8BD00BF003802400024F400FC
:1029D00080BA8C01002800F09D8070B504464F4BF2
:1029E0001B6803F00F038B4209D2CBB24B4A137022
:1029F000136803F00F03994201D0012070BD2368D2
:102A000013F0020F17D013F0040F04D0444A936858
:102A100043F4E0539360236813F0080F04D0404A56
:102A2000936843F4604393603D4A936823F0F00356
:102A3000A068034393600D46236813F0010F32D062
:102A40006368012B21D09A1E012A25D9344A1268C5
:102A500012F0020F60D032498A6822F00302134359
:102A60008B60FEF707FB06462D4B9B6803F00C03BB
:102A70006268B3EB820F16D0FEF7FCFA801B41F2BE
:102A800088339842F0D9032070BD254A126812F4A9
:102A9000003FE0D1012070BD214A126812F0007F92
:102AA000D9D1012070BD1D4B1B6803F00F039D425F
:102AB00009D2EAB2194B1A701B6803F00F039D424A
:102AC00001D0012070BD236813F0040F06D0144A12
:102AD000936823F4E053E1680B439360236813F099
:102AE000080F07D00E4A936823F46043216943EA34
:102AF000C1039360FFF71CFF094B9B68C3F30313EB
:102B0000084AD35CD840084B18600020FEF768FAEA
:102B1000002070BD01207047012070BD003C0240C4
:102B2000003802409878000808000020014B18681F
:102B3000704700BF0800002008B5FFF7F7FF044BFF
:102B40009B68C3F38223034AD35CD84008BD00BF0F
:102B500000380240A878000808B5FFF7E7FF044BEB
:102B60009B68C3F34233034AD35CD84008BD00BF1F
:102B700000380240A878000800283BD010B5044671
:102B80000023836290F85130002B2ED0022384F86A
:102B900051302268136823F0400313602268636891
:102BA000A1680B43E1680B4321690B4361690B4347
:102BB000A16901F400710B43E1690B43216A0B43E6
:102BC000A16A0B4313602268638B03F00403616AFC
:102BD0000B4353602268D36923F40063D361002060
:102BE0006065012384F8513010BD80F8503001F049
:102BF00093FFCBE70120704730B4036A23F0010351
:102C00000362036A4468826922F073020D682A43F2
:102C100023F002038D682B430F4DA8421AD005F50F
:102C20008065A84214D000255DB123F00803CD686B
:102C30002B4323F0040324F440744D692C438D6925
:102C40002C43446082614A684263036230BC70472F
:102C50000125E9E70125E7E70000014030B4036AF8
:102C600023F480730362036A4468C26922F073022A
:102C70000D682A4323F400738D6843EA0523114D40
:102C8000A8421DD005F58065A84217D0002575B172
:102C900023F40063CD6843EA052323F4806324F41E
:102CA00040544D6944EA05148D6944EA05144460B2
:102CB000C2614A68C263036230BC70470125E6E71F
:102CC0000125E4E70000014030B4036A23F4805397
:102CD0000362036A4468C26922F4E6420D6842EA6C
:102CE000052223F400538D6843EA05330C4DA842B6
:102CF00013D005F58065A8420DD0002525B124F438
:102D000080444D6944EA85144460C2614A680264A3
:102D1000036230BC70470125F0E70125EEE700BFF4
:102D20000000014010B4036A046A24F00104046244
:102D3000846924F0F00444EA021223F00A030B43EE
:102D4000826103625DF8044B704710B4036A23F09C
:102D5000100303628469036A24F4704444EA023273
:102D600023F0A00343EA0113826103625DF8044B80
:102D70007047836823F0700341F007010B438360C1
:102D8000704710B4846824F47F4442EA0323194353
:102D90000C4384605DF8044B7047022380F839309F
:102DA0000268136843F001031360012380F839308F
:102DB00000207047704790F83830012B7DD010B557
:102DC0000446012380F83830022380F83930026845
:102DD000936823F47F4323F0770393600B68402BC1
:102DE00057D010D9702B3ED01FD8502B47D0602B16
:102DF00032D1CA6849680068FFF7A7FF60212068E0
:102E0000FFF7B7FF28E0102B4DD008D9202B4FD06B
:102E1000302B21D130210068FFF7ABFF1CE0DBB97C
:102E200000210068FFF7A5FF16E0B3F5805F0ED024
:102E3000B3F5005F10D1CB684A6889680068FFF776
:102E4000A0FF2268936843F48043936004E0026823
:102E5000936823F007039360012384F8393000203E
:102E600084F8380010BDCB684A6889680068FFF7AD
:102E700088FF2268936843F077039360ECE7CA68A1
:102E800049680068FFF74EFF50212068FFF771FF87
:102E9000E2E7CA6849680068FFF744FF40212068FC
:102EA000FFF767FFD8E710210068FFF762FFD3E75D
:102EB00020210068FFF75DFFCEE702207047000089
:102EC0000368454A90424AD0B0F1804F49D0A2F5FC
:102ED0007C42904247D002F58062904245D002F594
:102EE0008062904243D002F57842904235D0002271
:102EF0001AB123F070034A681343374A90423AD01C
:102F0000B0F1804F50D0A2F57C4290424ED002F5F5
:102F1000806290424CD002F5806290424AD002F525
:102F20007842904248D002F57052904246D002F565
:102F30008062904244D002F58062904242D0A2F575
:102F40009832904240D002F5806290423ED002F525
:102F5000806290420DD000220EE00122C8E70122DB
:102F6000C6E70122C4E70122C2E70122C0E701222D
:102F7000BEE7012200E001221AB123F44073CA68BF
:102F8000134303608B68C3620B688362124B9842E1
:102F900020D003F5806398421AD000230BB10B694F
:102FA00003630123436170470122E5E70122E3E760
:102FB0000122E1E70122DFE70122DDE70122DBE771
:102FC0000122D9E70122D7E70122D5E70122D3E781
:102FD0000123E3E70123E1E700000140A8B110B5B8
:102FE000044690F839305BB1022384F83930211D52
:102FF0002068FFF765FF012384F83930002010BDF9
:1030000080F8383001F00CFFEEE701207047A8B1DE
:1030100010B5044690F839305BB1022384F839309A
:10302000211D2068FFF74CFF012384F83930002070
:1030300010BD80F83830FFF7BDFEEEE70120704785
:1030400030B4036A23F010030362036A44688269A0
:1030500022F4E6420D6842EA052223F020038D683F
:1030600043EA0513114DA8421DD005F58065A8421D
:1030700017D0002575B123F08003CD6843EA05130E
:1030800023F0400324F440644D6944EA85048D69CB
:1030900044EA8504446082614A688263036230BC0A
:1030A00070470125E6E70125E4E700BF0000014085
:1030B00038B590F83830012B66D00D460446012310
:1030C00080F83830022380F839300C2A1AD8DFE82B
:1030D00002F007191919201919193419191947007B
:1030E0000068FFF789FD2268936943F00803936144
:1030F0002268936923F00403936122689369296924
:103100000B439361012384F83930002084F83800A0
:1031100038BD0068FFF794FF2268936943F40063A9
:1031200093612268936923F48063936122689369B1
:10313000296943EA01239361E4E70068FFF78EFD04
:103140002268D36943F00803D3612268D36923F06E
:103150000403D3612268D36929690B43D361D1E7A2
:103160000068FFF7B1FD2268D36943F40063D361BF
:103170002268D36923F48063D3612268D369296903
:1031800043EA0123D361BDE7022038BD10B4012317
:1031900003FA01F4036A23EA04030362036A8A4020
:1031A000134303625DF8044B7047000010B50446FA
:1031B00001220068FFF7EAFF23680C4A934212D00D
:1031C00002F5806293420CD000221AB15A6C42F48C
:1031D00000425A642268136843F001031360002020
:1031E00010BD0122F1E70122EFE700BF000001401E
:1031F00090F83830012B22D030B4012280F83820EA
:10320000022380F839300468636823F07003636038
:10321000046863680D682B4363600468A36823F047
:103220008003A3600468A36849680B43A36080F827
:103230003920002380F83830184630BC704702200F
:10324000704790F83830012B25D0012380F83830B2
:10325000CB6823F440738A68134323F480634A687D
:10326000134323F400630A68134323F480530A6969
:10327000134323F400534A69134323F480438A69B8
:10328000134323F40043134302685364002380F87C
:10329000383018467047022070470268D36823F020
:1032A000C003D360202380F8393070470268D368A8
:1032B00023F49073D3600268536923F001035361D0
:1032C000202380F83A30704790F83930DBB2212B58
:1032D00001D0022070478368B3F5805F17D0026881
:1032E000036A591C01621B785360C38C9BB2013B7B
:1032F0009BB2C384DBB90268D36823F08003D36038
:103300000268D36843F04003D36000207047036A2B
:1033100002681B88C3F30803536003691BB9036A7F
:1033200002330362E1E7036A01330362DDE7002051
:10333000704700002DE9F04704460268136923F442
:103340004053C1680B4313610168CB6823F41643F3
:1033500023F00C0382680069024360690243E0695C
:1033600002431343CB602268536923F44073A1697D
:103370000B435361E369B3F5004F62D0D4F800808A
:10338000BB4B984500F01B8103F58063984500F026
:103390001681FFF7D1FB00EB800000EB8000656831
:1033A000AD00B0FBF5F5B34FA7FB05356D092E0158
:1033B000FFF7C2FB00EB800000EB80006568AD000A
:1033C000B0FBF5FAFFF7B8FB00EB800000EB8000E4
:1033D0006568AD00B0FBF5F5A7FB05356D094FF04D
:1033E000640909FB15A52D013235A7FB05356D09CB
:1033F00005F0F0053544FFF79FFB00EB800000EB84
:1034000080006668B600B0FBF6F6FFF795FB00EBB0
:10341000800000EB800063689B00B0FBF3F0A7FB2B
:103420000030400909FB10694FEA091909F1320916
:10343000A7FB0937C7F343172F44C8F80870BDE846
:10344000F087D4F8008003F1804303F510439845DA
:103450005CD003F58063984558D0FFF76DFB00EB17
:10346000800000EB800065686D00B0FBF5F5814FD2
:10347000A7FB05356D092E01FFF75EFB00EB800011
:1034800000EB800065686D00B0FBF5FAFFF754FBB8
:1034900000EB800000EB800065686D00B0FBF5F587
:1034A000A7FB05356D094FF0640909FB15A5ED0073
:1034B0003235A7FB05356D096D0005F4F875354407
:1034C000FFF73AFB00EB800000EB800066687600B7
:1034D000B0FBF6F6FFF730FB00EB800000EB80005E
:1034E00063685B00B0FBF3F3A7FB03235B0909FBF5
:1034F00013694FEAC90909F13209A7FB0937C7F374
:1035000042172F44C8F80870BDE8F087FFF724FB86
:1035100000EB800000EB800065686D00B0FBF5F506
:10352000544FA7FB05356D092E01FFF715FB00EB86
:10353000800000EB800065686D00B0FBF5FAFFF7D6
:103540000BFB00EB800000EB800065686D00B0FBBA
:10355000F5F5A7FB05356D094FF0640909FB15A5C5
:10356000ED003235A7FB05356D096D0005F4F875E2
:103570003544FFF7F1FA00EB800000EB800066684D
:103580007600B0FBF6F6FFF7E7FA00EB800000EB01
:10359000800063685B00B0FBF3F3A7FB03235B09C8
:1035A00009FB13694FEAC90909F13209A7FB093779
:1035B000C7F342172F44C8F80870BDE8F087FFF73B
:1035C000CBFA00EB800000EB80006568AD00B0FB3B
:1035D000F5F5284FA7FB05356D092E01FFF7BCFA5D
:1035E00000EB800000EB80006568AD00B0FBF5FAF1
:1035F000FFF7B2FA00EB800000EB80006568AD00D9
:10360000B0FBF5F5A7FB05356D094FF0640909FB23
:1036100015A52D013235A7FB05356D0905F0F0051F
:103620003544FFF799FA00EB800000EB80006668F4
:10363000B600B0FBF6F6FFF78FFA00EB800000EB68
:10364000800063689B00B0FBF3F3A7FB03235B09D7
:1036500009FB13694FEA091909F13209A7FB093778
:10366000C7F343172F44C8F80870BDE8F08700BFC0
:10367000001001401F85EB512DE9F04105460F4632
:1036800016469846069C2B681B6837EA03030CBF56
:1036900001230023B3421ED1B4F1FF3FF3D02CB17C
:1036A000FDF7E8FCA0EB08008442ECD22A68D3685E
:1036B00023F4D073D3602A68536923F00103536164
:1036C000202385F8393085F83A30002385F83830E2
:1036D0000320BDE8F0810020BDE8F08158B310B5AB
:1036E000044690F839300BB3242384F8393022682B
:1036F000D36823F40053D3602046FFF71BFE2268F3
:10370000136923F4904313612268536923F02A0359
:1037100053612268D36843F40053D3600020E06310
:10372000202384F8393084F83A3010BD80F83830DE
:1037300001F0D4FDD8E7012070472DE9F04182B0B7
:103740001E4690F83930DBB2202B04D002231846F5
:1037500002B0BDE8F08104460D469046002955D0E0
:10376000002A55D090F83830012B01D10223EEE722
:10377000012380F838300023C363212380F83930D7
:10378000FDF778FC0746A4F82480A4F8268010E012
:1037900000963B46002280212046FFF76DFF00285F
:1037A00038D122682B88C3F3080353602369CBB94F
:1037B0000235E38C9BB2BBB1E38C9BB2013B9BB265
:1037C000E384A368B3F5805FE2D000963B46002215
:1037D00080212046FFF750FFF0B923682A785A600D
:1037E0000135E6E70135E4E700963B46002240213B
:1037F0002046FFF741FF034608B10323A7E7202235
:1038000084F83920002284F83820A0E701239EE7BD
:1038100001239CE703239AE7032398E738B590F840
:103820003940E4B2202C01D0022038BD002931D02B
:10383000002A31D090F83830012B01D1022038BD58
:1038400013460446012280F8382001628384C38431
:103850000025C563212280F83920026B0F48D06310
:10386000226B0F481064226B0E48D064226B1565E2
:1038700022680432206BFEF78DF823686FF0400257
:103880001A6084F838502268536943F0800353610A
:10389000284638BD012038BD012038BDB5390008A3
:1038A000FF390008E93A000830B583B090F83A4093
:1038B000E4B2202C02D0022003B030BD00293DD05C
:1038C000002A3DD090F83830012B01D10220F3E7D7
:1038D00013460A460446012180F838108262838527
:1038E0000025C563222180F83A10416B1548C86352
:1038F000616B15480864616B1448C864616B0D65A1
:1039000021680431606BFEF745F8019523681A6859
:1039100001925A680192019A84F83850DA6842F4A8
:103920008072DA602268536943F0010353612268B0
:10393000536943F0400353612846BDE70120BBE7CC
:103940000120B9E7093A0008DD3A0008E93A000821
:1039500010B5044601684A6990F83930DBB2212B72
:103960000AD021684A6902F0400294F83A30DBB28A
:10397000222B11D0002010BD02F08002002AF0D0CE
:103980004B6923F080034B61006B08B1FEF73CF8F4
:103990002046FFF782FCE4E7002AEBD04B6923F0D6
:1039A00040034B61606B08B1FEF72EF82046FFF72D
:1039B0007DFCDFE708B5836B0268126812F4807F34
:1039C0000CD10022DA8419684A6922F080024A6127
:1039D0001A68D36843F04003D36008BD184600F06E
:1039E000FDFB08BD08B50168CB6823F04003CB6040
:1039F000202380F8393000F0F1FB002008BD08B525
:103A0000806B00F0EAFB08BD08B5836B02681268A2
:103A100012F4807F13D10022DA851968CA6822F473
:103A20008072CA6019684A6922F001024A61196805
:103A30004A6922F040024A61202283F83A2018465F
:103A400000F0CAFB08BD08B590F83A30DBB2222B73
:103A500001D0022008BD8368B3F5805F0FD00369F1
:103A60000BBB836A5A1C8262026852681A70C38D4B
:103A70009BB2013B9BB2C385F3B1002008BD826AB3
:103A8000036943B903685B68C3F308031380836A5F
:103A900002338362EBE703685B68DBB21380836AFF
:103AA00001338362E3E7826A531C836203685B68C5
:103AB00003F07F031370DAE70268D36823F490738E
:103AC000D3600268536923F001035361202380F817
:103AD0003A3000F081FB002008BD704708B5806BCC
:103AE000FFF7FBFF08BD704710B5846B23685A6968
:103AF00094F83930DBB2212B10D023685A6902F0D8
:103B0000400294F83A30DBB2222B11D0E36B43F041
:103B10001003E3632046FFF7E6FF10BD02F08002CA
:103B2000002AEAD00023E3842046FFF7B6FBE4E74F
:103B3000002AEBD00023E3852046FFF7B7FBE5E73B
:103B400010B5044602681368D168526913F00F007B
:103B500005D113F0200F02D011F0200F53D100280F
:103B600067D012F0010202D111F4907F61D013F0FE
:103B7000010F06D011F4807F03D0E06B40F001000C
:103B8000E06313F0040F04D01AB1E06B40F00200C0
:103B9000E06313F0020F04D01AB1E06B40F00400B0
:103BA000E06313F0080F04D01AB1E26B42F0080290
:103BB000E263E26B002A48D013F0200F02D011F02C
:103BC000200F24D123685B6903F04003E26B12F0FD
:103BD000080F00D13BB32046FFF768FB23685A6902
:103BE00012F0400F1BD05A6922F040025A61636BF9
:103BF0008BB11A4A1A65606BFDF750FF28B3606BF2
:103C0000036D984710BD2046FFF71DFF10BD2046ED
:103C1000FFF719FFD6E72046FFF765FF10BD2046E6
:103C2000FFF761FF10BD2046FFF75DFF0023E36350
:103C300010BD13F0800F02D011F0800F06D113F0E9
:103C4000400F02D011F0400F04D110BD2046FFF705
:103C50003BFB10BD2046FFF7C5FEF6E7613C0008C0
:103C600008B5806B0023C385C384FFF73CFF08BD04
:103C700000B585B02448254B03604FF48033436082
:103C8000002383600122026183610362C3622049D1
:103C90008162C3600323C36102634261FDF788FA56
:103CA000F0B900230093012201920293694616485D
:103CB000FDF736FCC8B90823009302230193694637
:103CC0001148FDF72DFCA8B90923009303230193A4
:103CD00069460D48FDF724FC88B905B05DF804FB82
:103CE0004A210C4800F018FCDBE75421094800F099
:103CF00013FCE0E75D21074800F00EFCE4E76621D5
:103D0000044800F009FCE8E71C0200200020014004
:103D10000100000FB07800080268264B9A4200D0DC
:103D2000704770B586B004460025009503F58C33C6
:103D30005A6C42F480725A645B6C03F48073009393
:103D4000009B0123019303260296039501A91A48BB
:103D5000FDF7A8FF01960296039501A91748FDF704
:103D6000A1FF1748174B036045608560C5604FF49D
:103D7000806303614FF4805343614FF48043836158
:103D80004FF48073C36105624562FDF79BFD60B926
:103D90000B4BA3639C63002211461220FDF79EFC8F
:103DA0001220FDF7CDFC06B070BD9421064800F04E
:103DB000B3FBEDE700200140000002400004024098
:103DC0006402002010640240B078000810B582B090
:103DD000002400942A4B1A6B42F480021A631A6B77
:103DE00002F480020092009A01941A6B42F40012CD
:103DF0001A631B6B03F400130193019B22462146B7
:103E00000B20FDF76BFC0B20FDF79AFC22462146A8
:103E10001020FDF763FC1020FDF792FC224621469E
:103E20001120FDF75BFC1120FDF78AFC224621469C
:103E30002F20FDF753FC2F20FDF782FC2246214660
:103E40003820FDF74BFC3820FDF77AFC224621464E
:103E50003920FDF743FC3920FDF772FC224621464C
:103E60003A20FDF73BFC3A20FDF76AFC224621464A
:103E70004620FDF733FC4620FDF762FC02B010BD82
:103E800000380240F0B58DB000240194464B1A6B07
:103E900042F010021A631A6B02F010020192019AAA
:103EA00002941A6B42F004021A631A6B02F00402C5
:103EB0000292029A03941A6B42F080021A631A6B00
:103EC00002F080020392039A04941A6B42F00102FA
:103ED0001A631A6B02F001020492049A05941A6B99
:103EE00042F002021A631A6B02F002020592059A6E
:103EF00006941A6B42F008021A631B6B03F0080366
:103F00000693069B294D22464FF480412846FDF733
:103F1000BBFF4FF400530793254B0893099407A95F
:103F20002846FDF7BFFE4FF480430793012708970B
:103F300009940A9407A92846FDF7B4FE4FF40043FC
:103F400007931C4E0896099407A92846FDF7AAFE78
:103F5000079703250895099407A91748FDF7A2FEBE
:103F600007950895099407A91448FDF79BFE4FF49F
:103F70008063079308940994114D07A92846FDF71B
:103F800091FE4FF40C6307930896099407A92846FD
:103F9000FDF788FE224621462820FDF79FFB2820BA
:103FA000FDF7CEFB0DB0F0BD003802400008024026
:103FB0000000111000002110000002400004024027
:103FC000000C024008B50C480C4B03600C4B4360DE
:103FD00000238360C3604FF48042026143618361C8
:103FE000C3610362FEF7C0F800B908BD4621054869
:103FF00000F092FAF9E700BF2403002000540040CB
:10400000801A0600C078000808B50C480C4B036005
:104010000C4B436000238360C3604FF48042026115
:1040200043618361C3610362FEF79EF800B908BD76
:104030005921054800F070FAF9E700BF7803002025
:1040400000580040A0860100C078000810B588B074
:1040500003683C4A934204D03B4A934256D008B08E
:1040600010BD04464FF440730393122304930123BD
:104070000593032306930423079303A93348FDF70D
:1040800011FE00230193324A116C41F400111164B6
:10409000126C02F400120192019A2E482E4A02601C
:1040A0004FF0007242608360C3604FF4806202612F
:1040B00043618361C36103624362FDF703FCD8B9C6
:1040C000244BA3639C632548254B03604FF000738A
:1040D0004360402383600023C3604FF48062026129
:1040E00043618361C36103624362FDF7EBFB40B947
:1040F0001A4B63639C63B2E784211A4800F00CFA00
:10410000DEE79621174800F007FAF1E74FF4406325
:10411000039312230493012305930323069304239B
:10412000079303A90948FDF7BDFD00230293084B3F
:104130001A6C42F480021A641B6C03F4800302932D
:10414000029B8CE7005400400058004000040240ED
:1041500000380240CC03002088600240C4020020E6
:10416000A0600240C078000808B532220249034826
:10417000FFF79AFB08BD00BF84040020880C0020D4
:1041800070B5084C2046FFF7E3FB074D3226324658
:104190000021284601F069FA324629462046FFF7F9
:1041A00083FB70BD880C00208404002070B5084C8F
:1041B0002046FFF7CDFB074D322632460021284628
:1041C00001F053FA324629462046FFF76DFB70BDD9
:1041D000A80B0020C80800207047704770470000F7
:1041E000094B1B6813F0100F0DD082B00023019310
:1041F000064B1B681A6801925B680193019B0122C0
:10420000034B1A7002B0704700100140480C0020A8
:10421000F8010020094B1B6813F0100F0DD082B07D
:1042200000230193064B1B681A6801925B68019397
:10423000019B0122034B1A7002B0704700500040EE
:10424000A80B0020F8010020094B1B6813F0100F89
:104250000DD082B000230193064B1B681A680192AF
:104260005B680193019B0122034B5A7002B07047B7
:1042700000140140880C0020F80100200268044B63
:104280009A4200D070470122024BDA70FAE700BF71
:1042900000540040F8010020B0F5004F00D07047F6
:1042A0000122014B1A71FAE7F8010020454B5978B9
:1042B0009A7841EA0221C1F30A01434A11809978B0
:1042C000D878C90841EA4011C1F30A015180D97870
:1042D0001879890941EA8001587941EA8021C1F3BE
:1042E0000A01918059799879490841EAC011C1F3CE
:1042F0000A01D1809979D879090941EA0011C1F3FD
:104300000A011181D979187AC90941EA4001587A1C
:1043100041EA4021C1F30A015181597A987A89080A
:1043200041EA8011C1F30A019181997AD87A490949
:1043300041EAC001D181197B587B41EA0021C1F3D8
:104340000A011182597B987BC90841EA4011C1F3E7
:104350000A015182997BD87B890941EA8001187C46
:1043600041EA8021C1F30A019182197C587C4908F5
:1043700041EAC011C1F30A01D182597C987C090934
:1043800041EA0011C1F30A011183997CD87CC90963
:1043900041EA4001187D41EA4021C1F30A015183FD
:1043A000197D587D890841EA8011C1F30A01918382
:1043B000597D987D490941EAC001D183DB7D138491
:1043C000704700BF840400202C04002038B5054647
:1043D0000C460846FCF782FD4FF4FA6382B2214690
:1043E0002846FFF7AAF938BD38B505460C460846F9
:1043F000FCF774FD82B221462846FFF70FFA38BD5C
:1044000008B50268044B9A4200D008BD0322034954
:104410000348FCF7F7FEF8E700200140FC08002005
:104420001C02002008B5054900230B604B608B601F
:1044300003220348FCF7E6FE08BD00BFFC0800208D
:104440001C02002008B50248FEF7A7FC08BD00BF0B
:104450006C0A002000224FF080435A6270474FF0F0
:104460008043586A7047000030B589B0054610EEA9
:10447000100AFCF737F814A3D3E90023FCF786F8F9
:1044800000220F4BFCF782F800220D4BFBF7CCFE0D
:10449000FCF72CFB80B2602301930290002303936E
:1044A0000493059306930793064C2A4601A92046D8
:1044B000FEF7FEFD29462046FEF778FE09B030BD26
:1044C00000408F40300A00207B14AE47E17A843FE1
:1044D00070B586B020230193012602960024039430
:1044E00004940C4D01A92846FDF7DCFB4023019301
:1044F00002960394049401A92846FDF7D3FB802378
:10450000019302960394049401A92846FDF7CAFB7F
:1045100006B070BD00040240FEE7000000B595B093
:10452000002101912F4B1A6C42F080521A641B6CCF
:1045300003F080530193019B02912B4B1A6842F4C4
:1045400040421A601B6803F440430293029B01231C
:1045500008934FF48033099302230E934FF48003A2
:104560000F931A2310934FF4B473119304231293EF
:10457000139308A8FEF710F820BBFDF7CDFF30BB62
:104580000F23039302210491002305934FF48052DB
:104590000692079303A8FEF71DFAE8B9FEF7C6FADC
:1045A000124BA3FB0030400AFDF7D6F80020FDF7C0
:1045B000F7F8002211464FF0FF30FDF78FF815B0E5
:1045C0005DF804FB40F28B110948FFF7A5FF4FF49B
:1045D000C9710748FFF7A0FF4FF4D0710448FFF7F7
:1045E0009BFF00BF0038024000700040D34D6210B6
:1045F000D0780008000000002DE9F0412DED048B7B
:1046000092B0FCF711FDFFF789FFFFF73BFCFFF7C6
:10461000DDFB00F001FE00F01DFEFFF7D3FCFFF70D
:10462000F3FC00F0DBFD00F01FFD00F075FD00F075
:104630004FFA00F02DFEFFF71BFB00F07FFC00F0AF
:10464000B7FB00F021FAFFF7EDFEFFF78DFDFFF756
:10465000F9FEFFF73DFFCC4D2A68D36843F0100305
:10466000D360CA4B1A68D36843F01003D360322278
:10467000C7492846FFF718F9C64C2068FBF710FF1A
:10468000B7A3D3E90023FBF781FFB7A3D3E9002346
:10469000FBF77CFF0022C04BFBF7C6FDB4A3D3E9B8
:1046A0000023FBF773FFFCF741FA80466068FBF7D5
:1046B000F7FEABA3D3E90023FBF768FFAAA3D3E976
:1046C0000023FBF763FF0022B34BFBF7ADFDAAA36A
:1046D000D3E90023FBF75AFFFCF728FA0746A06846
:1046E000FBF7DEFE9EA3D3E90023FBF74FFF00227A
:1046F000AA4BFCF775F8A2A3D3E90023FCF770F8E6
:10470000FCF714FA06464046FBF7ECFEA44C0246C2
:104710000B46A449204601F01DFC21462846FFF720
:1047200055FE3846FBF7DEFE02460B469E49204604
:1047300001F010FC21462846FFF748FE3046FBF703
:10474000D1FE02460B469949204601F003FC214662
:104750002846FFF73BFE0123019311AA0092D022C5
:10476000EC219348FDF78EFD0022924BDA70914BBD
:10477000DB78002BFBD08A4C9DF844208E492046E4
:1047800001F0E8FB21468048FFF720FE00245FE0AF
:10479000FFF78CFDFFF7F4FC0022864B5A70854B27
:1047A0001B78002B40F0BA80844D2B889BB207EE1B
:1047B000903AF8EE677A9FED829A77EEC97ADFED4C
:1047C000818A87EEA80A9FED808A20EE080A0020E1
:1047D000FFF74AFE6B889BB207EE903AF8EE677AD5
:1047E00077EEC97A87EEA80A20EE080A0420FFF7C0
:1047F0003BFEAB889BB207EE903AF8EE677A77EE15
:10480000C97A87EEA80A20EE080A0820FFF72CFED6
:10481000EB889BB207EE903AF8EE677A77EEC97AAA
:1048200087EEA80A20EE080A0C20FFF71DFE674B52
:10483000A3FB04235B0903EB8303DA00944200F03B
:104840000681FFF70CFE40F6C3139842F9D90134F4
:10485000FFF700FE4F4D2868FBF722FE40A3D3E987
:104860000023FBF793FE40A3D3E90023FBF78EFE62
:104870000022494BFBF7D8FC3DA3D3E90023FBF70B
:1048800085FEFCF753F907466868FBF709FE34A379
:10489000D3E90023FBF77AFE33A3D3E90023FBF728
:1048A00075FE00223C4BFBF7BFFC33A3D3E900238A
:1048B000FBF76CFEFCF73AF90646A868FBF7F0FD3B
:1048C00027A3D3E90023FBF761FE0022334BFBF75C
:1048D00087FF2BA3D3E90023FBF782FFFCF726F920
:1048E0000546344B5B78002B3FF459AF314B9A6847
:1048F00001329A60354BA3FB0213DB0803EB830301
:1049000059008A427FF444AF2A4B1A7B82F001029D
:104910001A7380212E48FDF7B7FA39E7DFF8B08027
:10492000002240214046FDF7AFFA012240214046D7
:10493000FDF7AAFADFF858804046FCF7CFFA0246A6
:10494000414604A800F086FEFFF730FC9DF81030C9
:10495000432B3FD00022174B1A7025E7AFF300809E
:10496000011D41857E01483F645DDC460378D73FE9
:1049700070CE88D2DE6016405917B7D100DEFD3FF9
:104980007B14AE47E17A843FA80B0020880C0020FE
:10499000C8080020FC0800200000F83F0000694023
:1049A000B8040020E0780008FC78000818790008B6
:1049B00024030020F8010020347900082C04002092
:1049C00000002A430000D2440000C842CDCCCCCC29
:1049D000000402409DF8123012A800F83C3D00F09F
:1049E00010FEC0B298B1012821D00228B2D1224EC7
:1049F0002846FBF777FDCDE9000102221F4930462A
:104A000001F0A8FA31461E48FFF7EEFCA2E71A4D66
:104A10003846FBF767FDCDE900010022174928461B
:104A200001F098FA29461648FFF7DEFC92E7124D8E
:104A30003046FBF757FDCDE9000101220F4928461A
:104A400001F088FA29460E48FFF7CEFC82E72A8853
:104A50006B88A88880B2E98889B2074D01910090DF
:104A60009BB292B20749284601F074FA29460448DD
:104A7000FFF7BAFCE5E600BF5004002044790008C7
:104A8000A80B00205479000808B50E480E4B0360AF
:104A90004FF48273436000238360C360036143610A
:104AA0004FF480228261C3610362436283620A23FE
:104AB000C362FEF761F800B908BD46210348FFF75D
:104AC0002BFDF9E708090020003800406C79000848
:104AD00008B50E480E4B03604FF482734360002309
:104AE0008360C360036143614FF480228261C361CC
:104AF0000362436283620A23C362FEF73DF800B992
:104B000008BD5C210348FFF707FDF9E760090020B5
:104B1000003401406C79000800B589B003681F4A71
:104B2000934205D01E4A93421DD009B05DF804FBA4
:104B3000002101911B4B1A6C42F480421A641B6CD9
:104B400003F480430193019B4FF4704303930223CA
:104B500004930591032306930523079303A91248A1
:104B6000FDF7A0F8E1E7002102910E4B5A6C42F4E8
:104B700000525A645B6C03F400530293029B74234B
:104B800003930223049305910323069305230793BC
:104B900003A90648FDF786F8C7E700BF00380040C4
:104BA000003401400038024000040240001002407E
:104BB00010B582B000240094214B5A6C42F480421C
:104BC0005A645A6C02F480420092009A01941A6C62
:104BD00042F080521A641B6C03F080530193019BD6
:104BE0000320FCF769FD224621466FF00B00FCF71D
:104BF00075FD224621466FF00A00FCF76FFD224644
:104C000021466FF00900FCF769FD224621466FF04E
:104C10000400FCF763FD224621466FF00300FCF719
:104C20005DFD224621466FF00100FCF757FD22464C
:104C300021464FF0FF30FCF751FD02B010BD00BF20
:104C4000003802407047FEE7FEE7FEE7FEE77047E8
:104C50007047704708B5FCF701FAFCF7B2FD08BDD4
:104C600008B50248FCF72EFF08BD00BFC80C0020A5
:104C700008B50248FCF726FF08BD00BFCC030020A2
:104C800008B50248FCF71EFF08BD00BFC4020020A3
:104C900008B50248FCF791FB08BD00BF1C020020CC
:104CA00008B52520FCF76EFDFFF79AFA0148FEF7DC
:104CB00047FF08BD480C002008B50248FEF740FF3A
:104CC00008BD00BF080B002008B54FF40060FDF7D9
:104CD000E1F84FF40050FDF7DDF84FF40040FDF728
:104CE000D9F808BD08B50248FCF7ECFE08BD00BFC6
:104CF000280D002008B53520FCF744FDFFF78AFA9F
:104D00000148FEF71DFF08BDA80B002008B50248AA
:104D1000FCF7D8FE08BD00BF6402002008B50248B9
:104D2000FCF7D0FE08BD00BFA80A002008B5024865
:104D3000FCF7C8FE08BD00BFE80B002008B502481C
:104D4000FCF7C0FE08BD00BF480B002008B5472097
:104D5000FCF718FDFFF778FA0148FEF7F1FE08BDF1
:104D6000880C00200F49D1F8883043F47003C1F853
:104D700088300D4B1A6842F001021A6000209860DA
:104D80001A6822F0847222F480321A60074A5A604C
:104D90001A6822F480221A60D8604FF000638B609A
:104DA000704700BF00ED00E00038024010300024E2
:104DB00000B587B018484FF0804303605923436023
:104DC000002383604FF0FF32C2600361FEF706F9F3
:104DD00098B906A94FF4805341F8103D0E48FDF7ED
:104DE000EAFF78B900230093019369460A48FEF769
:104DF000FFF960B907B05DF804FB90210748FFF7A1
:104E00008BFBE6E796210548FFF786FBEAE79D2145
:104E10000248FFF781FBEDE76C0A00207C7900086F
:104E200084B00368204A93420AD0B3F1804F14D073
:104E30001E4A93421ED01E4A934228D004B07047A7
:104E4000002300931B4B5A6C42F001025A645B6CC6
:104E500003F001030093009BF0E700230193154B3F
:104E60001A6C42F001021A641B6C03F001030193F7
:104E7000019BE3E7002302930E4B1A6C42F00202FF
:104E80001A641B6C03F002030293029BD6E7002313
:104E90000393084B1A6C42F004021A641B6C03F073
:104EA00004030393039BC9E7000001400004004092
:104EB000000800400038024000B587B003681A4A75
:104EC000934208D0194A934214D0194A93421ED0F3
:104ED00007B05DF804FB4FF4D4430193022302931F
:104EE0000023039304930123059301A91148FCF7C0
:104EF000D9FEEDE7202301930223029300220392BF
:104F00000492059301A90C48FCF7CCFEE0E7C0230E
:104F1000019302230293002203920492059301A9B4
:104F20000548FCF7BFFED3E7000001400004004045
:104F300000080040001002400004024000B595B097
:104F40004648474B0360592343600023836040F683
:104F50003402C26003614361FEF740F8002850D17B
:104F600014A94FF4805341F8103D3C48FDF723FF4E
:104F700000284BD13948FEF74AF800284BD10023CE
:104F80000E930F930EA93548FEF732F9002847D14A
:104F9000602307930022089209920A920B920C92C6
:104FA0000D9207A92D48FEF783F800283DD1042271
:104FB00007A92A48FEF77CF800283BD1082207A958
:104FC0002648FEF775F8002839D10C2207A9234896
:104FD000FEF76EF8002837D1002300930193029367
:104FE000039304934FF400520592069369461B48BD
:104FF000FEF727F968BB1948FFF75EFF15B05DF8AB
:1050000004FB44211748FFF787FAA9E74A2115480E
:10501000FFF782FAAEE74F211248FFF77DFAAEE7BD
:1050200056211048FFF778FAB2E762210D48FFF7E2
:1050300073FABCE767210B48FFF76EFABEE76C21F5
:105040000848FFF769FAC0E771210648FFF764FADC
:10505000C2E77D210348FFF75FFACCE7300A002062
:10506000000001407C79000800B58FB02748284B2C
:10507000036059234360002383604FF47A72C26057
:105080000361FDF7ABFF38BB0EA94FF4805341F825
:10509000103D1E48FDF78FFE18BB1C48FDF7B7FFFB
:1050A00020BB00230893099308A91848FEF7A0F82D
:1050B00008BB60230193002302930393059304220A
:1050C0000DEB02011148FDF7F3FFC8B90F48FFF7D8
:1050D000F3FE0FB05DF804FBAF210E48FFF71CFA9A
:1050E000D2E7B5210B48FFF717FAD6E7BA210948EE
:1050F000FFF712FAD5E7C1210648FFF70DFAD8E706
:10510000CA210448FFF708FAE0E700BFF4090020CD
:10511000000400407C79000800B58FB02C482D4B6E
:10512000036059234360002383604FF47A72C260A6
:105130000361FDF753FF60BB0EA94FF4805341F8A4
:10514000103D2348FDF737FE40BB2148FDF75FFFC8
:1051500048BB00230893099308A91D48FEF748F8A7
:1051600030BB60230193002202920392059201A9B1
:105170001748FDF79DFF00BB04220DEB0201144808
:10518000FDF796FFF0B91248FFF796FE0FB05DF8F5
:1051900004FBDE211048FFF7BFF9CDE7E4210E48FC
:1051A000FFF7BAF9D1E7E9210B48FFF7B5F9D0E7E6
:1051B000F0210948FFF7B0F9D3E7F9210648FFF7D6
:1051C000ABF9D9E7FE210448FFF7A6F9DBE700BFFA
:1051D000B8090020000800407C79000808B50B4899
:1051E0000B4B03604FF4E133436000238360C360E3
:1051F00003610C2242618361C361FEF76FFA00B95B
:1052000008BD4A210348FFF787F9F9E7A80B0020FA
:10521000005000408C79000808B50B480B4B036028
:105220004FF4E133436000238360C36003610C22C9
:1052300042618361C361FEF751FA00B908BD5D2187
:105240000348FFF769F9F9E7480C00200010014016
:105250008C79000808B50B480B4B03604FF4E13321
:10526000436000238360C36003610C224261836159
:10527000C361FEF733FA00B908BD70210348FFF798
:105280004BF9F9E7080B0020004800408C79000832
:1052900008B50E480E4B03600E4B43604FF480532D
:1052A00083604FF40053C3604FF4806303610C23A9
:1052B000436100238361C361FEF710FA00B908BDA2
:1052C00083210548FFF728F9F9E700BF880C002083
:1052D00000140140A08601008C7900082DE9F043FC
:1052E0008BB0044603689F4A93420DD09E4A934276
:1052F00076D09E4A934200F0D0809D4A934200F0BF
:10530000F0800BB0BDE8F08300250195994B1A6C35
:1053100042F480121A641B6C03F480130193019B06
:105320004FF4805305934FF00209CDF818904FF0D9
:105330000108CDF81C80032708970826099605A9BF
:105340008D48FCF7AFFC04230593CDF81890CDF8F9
:105350001C800897099605A98848FCF7A3FC884893
:10536000884B03604FF0006343608560C5604FF475
:105370008063036145618561C56105624562FCF733
:10538000A1FA18BB7E4B63639C637F487F4B03602D
:105390004FF000634360402383600023C3604FF4F9
:1053A0008062026143618361C36103624362FCF70F
:1053B00089FA80B9744B23639C630022114635201F
:1053C000FCF78CF93520FCF7BBF99AE7B42170485B
:1053D000FFF7A2F8D6E7C6216D48FFF79DF8E9E789
:1053E00000250295634B5A6C42F010025A645B6CC4
:1053F00003F010030293029B4FF4C0630593022352
:10540000069301230793032308930723099305A910
:105410006048FCF747FC6048604B03604FF0006356
:1054200043608560C5604FF48063036145618561B9
:10543000C56105624562FCF745FA18BB564B6363CC
:105440009C635748574B03604FF000634360402311
:1054500083600023C3604FF4806202614361836113
:10546000C36103624362FCF72DFA80B94C4B23639E
:105470009C63002211462520FCF730F92520FCF71B
:105480005FF93EE7F3214248FFF746F8D6E740F2DE
:1054900005113F48FFF740F8E8E700240394354B37
:1054A0001A6C42F480221A641B6C03F48023039369
:1054B000039B4FF440730593022306930123079344
:1054C000032308930723099305A92C48FCF7EAFB5B
:1054D000224621462720FCF701F92720FCF730F966
:1054E0000FE700250495234B5A6C42F020025A64C2
:1054F0005B6C03F020030493049BC02305930223F9
:10550000069301230793032308930823099305A90E
:105510001948FCF7C7FB2448244B03604FF0206375
:1055200043608560C5604FF48063036145618561B8
:105530004FF48073C36105624562FCF7C3F958B943
:10554000194B63639C63002211464720FCF7C6F8A1
:105550004720FCF7F5F8D4E64FF4A6710C48FEF7A7
:10556000DBFFEDE700500040001001400048004024
:10557000001401400038024000080240000C0240C4
:10558000C80C002010600240280D0020B8600240C6
:105590008C79000800000240E80B002040640240C3
:1055A000480B0020B8640240A80A0020286402408A
:1055B000DFF834D0002103E00C4B5B58435004313A
:1055C0000B480C4B42189A42F6D30B4A02E00023D8
:1055D00042F8043B094B9A42F9D3FFF7C3FB00F0B2
:1055E00015F8FFF709F8704700000320707C0008E9
:1055F00000000020DC010020DC0100208C0D0020D8
:10560000FEE70A22002100F049BD000070B50D4EF2
:105610000D4CA41BA4100025A54209D10B4E0C4C27
:1056200002F028F9A41BA4100025A54205D170BDE5
:1056300056F8253098470135EEE756F8253098475B
:105640000135F2E7687C0008687C0008687C000887
:105650006C7C000810B5431E0A44914200D110BD75
:1056600011F8014B03F8014FF7E702440346934258
:1056700000D1704703F8011BF9E72DE9FF4755EC0E
:10568000104B0D9FDDF830A0002D0E4691461946B7
:10569000B8BF22462B4627F02007BBBF05F10043C9
:1056A0001D4600232D23B8BF1446462F0B7004D08F
:1056B000452F00D10136022100E0032103AB019305
:1056C00002AB00933246534645EC104B00F088FD88
:1056D000472F804602D119F0010F26D0462F08EB44
:1056E000060911D198F80030302B0AD1002200238E
:1056F00020462946FBF7B2F918B9C6F10106CAF8E7
:105700000060DAF800309944002200232046294640
:10571000FBF7A4F938B93022039B994505D9591CE8
:1057200003911A70F8E7CDF80C90039B0E9AA3EB47
:1057300008034046136004B0BDE8F087F7B50346A0
:105740000029B8BF494203F8022BB4BF2D222B22F7
:105750000929427020DD0DF1070217460A2691FB48
:10576000F6F506FB15113031092D02F8011C02F186
:10577000FF34294609DC3031023A04F8011CBA42F0
:105780001C4604D3201A03B0F0BD2246E7E712F806
:10579000011B03F8011BF2E730221C46114404F8F8
:1057A000022B5970EEE700002DE9F04F8DB00C464A
:1057B000DDF8588016461F46054601F0E3FA0368F7
:1057C00004931846FBF78AFB00230A93D8F80030AD
:1057D0000590073323F0070303F1080294F818A09B
:1057E000D4F800B0C8F80020D3E90023C4E912239C
:1057F000D4E9128929F000430793CDF818804FF0BF
:10580000FF32A54BDDE90601FBF75AF9002840F00D
:10581000FB814FF0FF32A04BDDE90601FBF732F9C7
:10582000002840F0F1810022002340464946FBF762
:105830001FF910B12D2384F84330984B984ABAF1E0
:10584000470F8CBF9046984603232BF00402236138
:1058500022604FF00009009733460BAA21462846E4
:1058600000F0E2F9013040F093804FF0FF300DB0CE
:10587000BDE8F08F61684B1C4BF480623FD106237A
:105880006360002303930AAB029309AB009349ECD6
:10589000108B0DF123032260CDF804A06168284627
:1058A000FFF7EBFE0AF0DF03472B804609D1099B87
:1058B000D81C02DB6268934257DDAAF1020A5FFA44
:1058C0008AFABAF1650F099934D80139524604F1C0
:1058D00050000991FFF732FF0A9A8318012A814686
:1058E000236102DC2268D10701D5013323619DF8D1
:1058F0002330002BAFD02D2384F84330ABE7BAF12F
:10590000670F02D0BAF1470FBBD189B100230393CF
:105910000AAB029309AB009349EC108B2260CDF8DF
:1059200004A00DF123032846FFF7A7FE8046BEE73B
:105930000123A5E7BAF1660F19D1002963680CDDD0
:10594000216113B92268D20702D501330B442361C8
:10595000099BA3654FF00009C9E713B92268D00776
:1059600001D50233F3E70123F1E74FF0670A099B02
:105970000A9A934205DB22682361D107E8D50133F7
:10598000E5E7002BD4BFC3F1020301231344DEE794
:1059900023685A0507D42369424631462846B8474A
:1059A00001302BD161E7BAF1650F40F2E2800022AD
:1059B0000023D4E91201FBF751F800283CD0012361
:1059C000384A31462846B84701303FF44EAF0A9B6B
:1059D000099A9A4202DB2368D8070FD5059B049ADF
:1059E00031462846B84701303FF43FAF4FF000083A
:1059F00004F11A090A9B013B984512DB23689B07B7
:105A000009D54FF0000804F11909E3680B9A9B1AB5
:105A10009845C0F2EE80E0680B9B9842B8BF1846EC
:105A200025E701234A4631462846B84701303FF46E
:105A30001CAF08F10108DDE7099B002B34DC0123D2
:105A4000184A31462846B84701303FF40EAF099B4B
:105A500023B90A9B13B92368D907CFD5059B049AAC
:105A600031462846B84701303FF4FFAE4FF00009F9
:105A700004F11A0A099B5B42994501DB0A9B8BE7FB
:105A80000123524631462846B84701303FF4EDAE77
:105A900009F10109EEE700BFFFFFEF7F9C790008E5
:105AA000A0790008AC7900080A9AA36D9A42A8BFB1
:105AB0001A46002A914638DC04F11A034FF0000B15
:105AC00029EAE9790693D4F858A0AAEB09039B4583
:105AD00033DB0A9B099A9A423ADB2368DA0737D408
